{
  "_format": "hh-sol-artifact-1",
  "contractName": "EverDropManager",
  "sourceName": "contracts/EverDropManager.sol",
  "abi": [
    {
      "inputs": [
        {
          "internalType": "string",
          "name": "externalId",
          "type": "string"
        }
      ],
      "name": "DropConflict",
      "type": "error"
    },
    {
      "inputs": [],
      "name": "DropSoldOut",
      "type": "error"
    },
    {
      "inputs": [],
      "name": "IncorrectAmountSent",
      "type": "error"
    },
    {
      "inputs": [],
      "name": "IncorrectExternalIds",
      "type": "error"
    },
    {
      "inputs": [],
      "name": "InsufficientBalance",
      "type": "error"
    },
    {
      "inputs": [],
      "name": "InvalidAddress",
      "type": "error"
    },
    {
      "inputs": [],
      "name": "InvalidInterface",
      "type": "error"
    },
    {
      "inputs": [],
      "name": "InvalidSupply",
      "type": "error"
    },
    {
      "inputs": [],
      "name": "NotEnoughTokensAvailable",
      "type": "error"
    },
    {
      "inputs": [],
      "name": "NotWhiteListed",
      "type": "error"
    },
    {
      "inputs": [
        {
          "internalType": "string",
          "name": "externalId",
          "type": "string"
        }
      ],
      "name": "PrintConflict",
      "type": "error"
    },
    {
      "inputs": [],
      "name": "SaleEnded",
      "type": "error"
    },
    {
      "inputs": [],
      "name": "SaleNotStarted",
      "type": "error"
    },
    {
      "inputs": [],
      "name": "UnauthorizedUpdate",
      "type": "error"
    },
    {
      "inputs": [],
      "name": "ZeroAddress",
      "type": "error"
    },
    {
      "anonymous": false,
      "inputs": [
        {
          "indexed": false,
          "internalType": "address",
          "name": "previousAdmin",
          "type": "address"
        },
        {
          "indexed": false,
          "internalType": "address",
          "name": "newAdmin",
          "type": "address"
        }
      ],
      "name": "AdminChanged",
      "type": "event"
    },
    {
      "anonymous": false,
      "inputs": [
        {
          "indexed": true,
          "internalType": "address",
          "name": "beacon",
          "type": "address"
        }
      ],
      "name": "BeaconUpgraded",
      "type": "event"
    },
    {
      "anonymous": false,
      "inputs": [
        {
          "indexed": false,
          "internalType": "uint256",
          "name": "dropId",
          "type": "uint256"
        },
        {
          "indexed": false,
          "internalType": "bytes32",
          "name": "merkleRoot",
          "type": "bytes32"
        }
      ],
      "name": "DropMerkleRootUpdated",
      "type": "event"
    },
    {
      "anonymous": false,
      "inputs": [
        {
          "indexed": false,
          "internalType": "uint256",
          "name": "dropId",
          "type": "uint256"
        },
        {
          "indexed": false,
          "internalType": "address",
          "name": "owner",
          "type": "address"
        }
      ],
      "name": "DropRightHolderUpdated",
      "type": "event"
    },
    {
      "anonymous": false,
      "inputs": [
        {
          "indexed": false,
          "internalType": "uint256",
          "name": "dropId",
          "type": "uint256"
        },
        {
          "indexed": false,
          "internalType": "uint64",
          "name": "saleOpenTime",
          "type": "uint64"
        },
        {
          "indexed": false,
          "internalType": "uint64",
          "name": "saleCloseTime",
          "type": "uint64"
        }
      ],
      "name": "DropSaleInfoUpdated",
      "type": "event"
    },
    {
      "anonymous": false,
      "inputs": [
        {
          "indexed": false,
          "internalType": "uint256",
          "name": "dropId",
          "type": "uint256"
        },
        {
          "indexed": false,
          "internalType": "uint128",
          "name": "supply",
          "type": "uint128"
        }
      ],
      "name": "DropSupplyUpdated",
      "type": "event"
    },
    {
      "anonymous": false,
      "inputs": [
        {
          "indexed": false,
          "internalType": "uint8",
          "name": "version",
          "type": "uint8"
        }
      ],
      "name": "Initialized",
      "type": "event"
    },
    {
      "anonymous": false,
      "inputs": [
        {
          "indexed": true,
          "internalType": "uint256",
          "name": "dropId",
          "type": "uint256"
        },
        {
          "indexed": true,
          "internalType": "string",
          "name": "externalId",
          "type": "string"
        },
        {
          "indexed": false,
          "internalType": "address",
          "name": "nftContractAddress",
          "type": "address"
        }
      ],
      "name": "NewDrop",
      "type": "event"
    },
    {
      "anonymous": false,
      "inputs": [
        {
          "indexed": true,
          "internalType": "bytes32",
          "name": "role",
          "type": "bytes32"
        },
        {
          "indexed": true,
          "internalType": "bytes32",
          "name": "previousAdminRole",
          "type": "bytes32"
        },
        {
          "indexed": true,
          "internalType": "bytes32",
          "name": "newAdminRole",
          "type": "bytes32"
        }
      ],
      "name": "RoleAdminChanged",
      "type": "event"
    },
    {
      "anonymous": false,
      "inputs": [
        {
          "indexed": true,
          "internalType": "bytes32",
          "name": "role",
          "type": "bytes32"
        },
        {
          "indexed": true,
          "internalType": "address",
          "name": "account",
          "type": "address"
        },
        {
          "indexed": true,
          "internalType": "address",
          "name": "sender",
          "type": "address"
        }
      ],
      "name": "RoleGranted",
      "type": "event"
    },
    {
      "anonymous": false,
      "inputs": [
        {
          "indexed": true,
          "internalType": "bytes32",
          "name": "role",
          "type": "bytes32"
        },
        {
          "indexed": true,
          "internalType": "address",
          "name": "account",
          "type": "address"
        },
        {
          "indexed": true,
          "internalType": "address",
          "name": "sender",
          "type": "address"
        }
      ],
      "name": "RoleRevoked",
      "type": "event"
    },
    {
      "anonymous": false,
      "inputs": [
        {
          "indexed": true,
          "internalType": "address",
          "name": "implementation",
          "type": "address"
        }
      ],
      "name": "Upgraded",
      "type": "event"
    },
    {
      "inputs": [],
      "name": "CREATOR_ROLE",
      "outputs": [
        {
          "internalType": "bytes32",
          "name": "",
          "type": "bytes32"
        }
      ],
      "stateMutability": "view",
      "type": "function"
    },
    {
      "inputs": [],
      "name": "DEFAULT_ADMIN_ROLE",
      "outputs": [
        {
          "internalType": "bytes32",
          "name": "",
          "type": "bytes32"
        }
      ],
      "stateMutability": "view",
      "type": "function"
    },
    {
      "inputs": [],
      "name": "SUB_ADMIN_ROLE",
      "outputs": [
        {
          "internalType": "bytes32",
          "name": "",
          "type": "bytes32"
        }
      ],
      "stateMutability": "view",
      "type": "function"
    },
    {
      "inputs": [
        {
          "internalType": "address",
          "name": "_creator",
          "type": "address"
        }
      ],
      "name": "addCreator",
      "outputs": [],
      "stateMutability": "nonpayable",
      "type": "function"
    },
    {
      "inputs": [
        {
          "internalType": "address",
          "name": "_subAdmin",
          "type": "address"
        }
      ],
      "name": "addSubAdmin",
      "outputs": [],
      "stateMutability": "nonpayable",
      "type": "function"
    },
    {
      "inputs": [
        {
          "internalType": "address",
          "name": "_owner",
          "type": "address"
        },
        {
          "internalType": "address",
          "name": "_nft",
          "type": "address"
        },
        {
          "internalType": "uint256",
          "name": "_price",
          "type": "uint256"
        },
        {
          "internalType": "uint128",
          "name": "_supply",
          "type": "uint128"
        },
        {
          "internalType": "uint128",
          "name": "_royaltySharePerToken",
          "type": "uint128"
        },
        {
          "internalType": "string",
          "name": "_externalId",
          "type": "string"
        },
        {
          "internalType": "uint64",
          "name": "_saleOpenTime",
          "type": "uint64"
        },
        {
          "internalType": "uint64",
          "name": "_saleCloseTime",
          "type": "uint64"
        },
        {
          "internalType": "bytes32",
          "name": "_merkle",
          "type": "bytes32"
        }
      ],
      "name": "create",
      "outputs": [],
      "stateMutability": "nonpayable",
      "type": "function"
    },
    {
      "inputs": [
        {
          "internalType": "uint256",
          "name": "",
          "type": "uint256"
        }
      ],
      "name": "drops",
      "outputs": [
        {
          "internalType": "uint256",
          "name": "dropId",
          "type": "uint256"
        },
        {
          "internalType": "uint128",
          "name": "sold",
          "type": "uint128"
        },
        {
          "internalType": "uint64",
          "name": "saleOpenTime",
          "type": "uint64"
        },
        {
          "internalType": "uint64",
          "name": "saleCloseTime",
          "type": "uint64"
        },
        {
          "components": [
            {
              "internalType": "uint256",
              "name": "price",
              "type": "uint256"
            },
            {
              "internalType": "uint128",
              "name": "supply",
              "type": "uint128"
            },
            {
              "internalType": "uint128",
              "name": "royaltySharePerToken",
              "type": "uint128"
            }
          ],
          "internalType": "struct EverDropManager.TokenInfo",
          "name": "tokenInfo",
          "type": "tuple"
        },
        {
          "internalType": "string",
          "name": "externalId",
          "type": "string"
        },
        {
          "internalType": "address",
          "name": "owner",
          "type": "address"
        },
        {
          "internalType": "address",
          "name": "nft",
          "type": "address"
        },
        {
          "internalType": "bytes32",
          "name": "merkleRoot",
          "type": "bytes32"
        }
      ],
      "stateMutability": "view",
      "type": "function"
    },
    {
      "inputs": [
        {
          "internalType": "string",
          "name": "",
          "type": "string"
        }
      ],
      "name": "externalIdToDropId",
      "outputs": [
        {
          "internalType": "uint256",
          "name": "",
          "type": "uint256"
        }
      ],
      "stateMutability": "view",
      "type": "function"
    },
    {
      "inputs": [
        {
          "internalType": "uint256",
          "name": "_dropId",
          "type": "uint256"
        }
      ],
      "name": "getDrop",
      "outputs": [
        {
          "components": [
            {
              "internalType": "uint256",
              "name": "dropId",
              "type": "uint256"
            },
            {
              "internalType": "uint128",
              "name": "sold",
              "type": "uint128"
            },
            {
              "internalType": "uint64",
              "name": "saleOpenTime",
              "type": "uint64"
            },
            {
              "internalType": "uint64",
              "name": "saleCloseTime",
              "type": "uint64"
            },
            {
              "components": [
                {
                  "internalType": "uint256",
                  "name": "price",
                  "type": "uint256"
                },
                {
                  "internalType": "uint128",
                  "name": "supply",
                  "type": "uint128"
                },
                {
                  "internalType": "uint128",
                  "name": "royaltySharePerToken",
                  "type": "uint128"
                }
              ],
              "internalType": "struct EverDropManager.TokenInfo",
              "name": "tokenInfo",
              "type": "tuple"
            },
            {
              "internalType": "string",
              "name": "externalId",
              "type": "string"
            },
            {
              "internalType": "address",
              "name": "owner",
              "type": "address"
            },
            {
              "internalType": "address",
              "name": "nft",
              "type": "address"
            },
            {
              "internalType": "bytes32",
              "name": "merkleRoot",
              "type": "bytes32"
            }
          ],
          "internalType": "struct EverDropManager.Drop",
          "name": "",
          "type": "tuple"
        }
      ],
      "stateMutability": "view",
      "type": "function"
    },
    {
      "inputs": [
        {
          "internalType": "string",
          "name": "_externalId",
          "type": "string"
        }
      ],
      "name": "getDropByExternalId",
      "outputs": [
        {
          "components": [
            {
              "internalType": "uint256",
              "name": "dropId",
              "type": "uint256"
            },
            {
              "internalType": "uint128",
              "name": "sold",
              "type": "uint128"
            },
            {
              "internalType": "uint64",
              "name": "saleOpenTime",
              "type": "uint64"
            },
            {
              "internalType": "uint64",
              "name": "saleCloseTime",
              "type": "uint64"
            },
            {
              "components": [
                {
                  "internalType": "uint256",
                  "name": "price",
                  "type": "uint256"
                },
                {
                  "internalType": "uint128",
                  "name": "supply",
                  "type": "uint128"
                },
                {
                  "internalType": "uint128",
                  "name": "royaltySharePerToken",
                  "type": "uint128"
                }
              ],
              "internalType": "struct EverDropManager.TokenInfo",
              "name": "tokenInfo",
              "type": "tuple"
            },
            {
              "internalType": "string",
              "name": "externalId",
              "type": "string"
            },
            {
              "internalType": "address",
              "name": "owner",
              "type": "address"
            },
            {
              "internalType": "address",
              "name": "nft",
              "type": "address"
            },
            {
              "internalType": "bytes32",
              "name": "merkleRoot",
              "type": "bytes32"
            }
          ],
          "internalType": "struct EverDropManager.Drop",
          "name": "",
          "type": "tuple"
        }
      ],
      "stateMutability": "view",
      "type": "function"
    },
    {
      "inputs": [
        {
          "internalType": "bytes32",
          "name": "role",
          "type": "bytes32"
        }
      ],
      "name": "getRoleAdmin",
      "outputs": [
        {
          "internalType": "bytes32",
          "name": "",
          "type": "bytes32"
        }
      ],
      "stateMutability": "view",
      "type": "function"
    },
    {
      "inputs": [
        {
          "internalType": "bytes32",
          "name": "role",
          "type": "bytes32"
        },
        {
          "internalType": "address",
          "name": "account",
          "type": "address"
        }
      ],
      "name": "grantRole",
      "outputs": [],
      "stateMutability": "nonpayable",
      "type": "function"
    },
    {
      "inputs": [
        {
          "internalType": "bytes32",
          "name": "role",
          "type": "bytes32"
        },
        {
          "internalType": "address",
          "name": "account",
          "type": "address"
        }
      ],
      "name": "hasRole",
      "outputs": [
        {
          "internalType": "bool",
          "name": "",
          "type": "bool"
        }
      ],
      "stateMutability": "view",
      "type": "function"
    },
    {
      "inputs": [
        {
          "internalType": "address",
          "name": "_admin",
          "type": "address"
        }
      ],
      "name": "initialize",
      "outputs": [],
      "stateMutability": "nonpayable",
      "type": "function"
    },
    {
      "inputs": [],
      "name": "proxiableUUID",
      "outputs": [
        {
          "internalType": "bytes32",
          "name": "",
          "type": "bytes32"
        }
      ],
      "stateMutability": "view",
      "type": "function"
    },
    {
      "inputs": [
        {
          "internalType": "address",
          "name": "_creator",
          "type": "address"
        }
      ],
      "name": "removeCreator",
      "outputs": [],
      "stateMutability": "nonpayable",
      "type": "function"
    },
    {
      "inputs": [
        {
          "internalType": "address",
          "name": "_subAdmin",
          "type": "address"
        }
      ],
      "name": "removeSubAdmin",
      "outputs": [],
      "stateMutability": "nonpayable",
      "type": "function"
    },
    {
      "inputs": [
        {
          "internalType": "bytes32",
          "name": "role",
          "type": "bytes32"
        },
        {
          "internalType": "address",
          "name": "account",
          "type": "address"
        }
      ],
      "name": "renounceRole",
      "outputs": [],
      "stateMutability": "nonpayable",
      "type": "function"
    },
    {
      "inputs": [
        {
          "internalType": "bytes32",
          "name": "role",
          "type": "bytes32"
        },
        {
          "internalType": "address",
          "name": "account",
          "type": "address"
        }
      ],
      "name": "revokeRole",
      "outputs": [],
      "stateMutability": "nonpayable",
      "type": "function"
    },
    {
      "inputs": [
        {
          "internalType": "uint256",
          "name": "_dropId",
          "type": "uint256"
        },
        {
          "internalType": "bytes32",
          "name": "_merkle",
          "type": "bytes32"
        }
      ],
      "name": "setMerkleRoot",
      "outputs": [],
      "stateMutability": "nonpayable",
      "type": "function"
    },
    {
      "inputs": [
        {
          "internalType": "uint256",
          "name": "_dropId",
          "type": "uint256"
        },
        {
          "internalType": "address",
          "name": "_owner",
          "type": "address"
        }
      ],
      "name": "setRightHolderInfo",
      "outputs": [],
      "stateMutability": "nonpayable",
      "type": "function"
    },
    {
      "inputs": [
        {
          "internalType": "uint256",
          "name": "_dropId",
          "type": "uint256"
        },
        {
          "internalType": "uint64",
          "name": "_saleOpenTime",
          "type": "uint64"
        },
        {
          "internalType": "uint64",
          "name": "_saleCloseTime",
          "type": "uint64"
        }
      ],
      "name": "setSalesInfo",
      "outputs": [],
      "stateMutability": "nonpayable",
      "type": "function"
    },
    {
      "inputs": [
        {
          "internalType": "uint256",
          "name": "_dropId",
          "type": "uint256"
        },
        {
          "internalType": "uint128",
          "name": "_supply",
          "type": "uint128"
        }
      ],
      "name": "setSupply",
      "outputs": [],
      "stateMutability": "nonpayable",
      "type": "function"
    },
    {
      "inputs": [
        {
          "internalType": "bytes4",
          "name": "interfaceId",
          "type": "bytes4"
        }
      ],
      "name": "supportsInterface",
      "outputs": [
        {
          "internalType": "bool",
          "name": "",
          "type": "bool"
        }
      ],
      "stateMutability": "view",
      "type": "function"
    },
    {
      "inputs": [
        {
          "internalType": "uint256",
          "name": "_dropId",
          "type": "uint256"
        },
        {
          "internalType": "uint128",
          "name": "_quantity",
          "type": "uint128"
        }
      ],
      "name": "updateDropCounter",
      "outputs": [],
      "stateMutability": "nonpayable",
      "type": "function"
    },
    {
      "inputs": [
        {
          "internalType": "address",
          "name": "newImplementation",
          "type": "address"
        }
      ],
      "name": "upgradeTo",
      "outputs": [],
      "stateMutability": "nonpayable",
      "type": "function"
    },
    {
      "inputs": [
        {
          "internalType": "address",
          "name": "newImplementation",
          "type": "address"
        },
        {
          "internalType": "bytes",
          "name": "data",
          "type": "bytes"
        }
      ],
      "name": "upgradeToAndCall",
      "outputs": [],
      "stateMutability": "payable",
      "type": "function"
    }
  ],
  "bytecode": "0x60a06040523060805234801561001457600080fd5b5060805161287b61004c600039600081816107aa015281816107ea015281816108e00152818161092001526109af015261287b6000f3fe60806040526004361061019c5760003560e01c8063640f4937116100ec578063ba75d66e1161008a578063d1647b8b11610064578063d1647b8b146104d2578063d547741f146104f2578063e30bf77c14610512578063f4651d571461053257600080fd5b8063ba75d66e14610472578063bd6018bb14610492578063c4d66de8146104b257600080fd5b806391d14854116100c657806391d14854146103fd578063a217fddf1461041d578063b280004a14610432578063b9c4eb431461045257600080fd5b8063640f49371461038e5780636787d449146103ae5780638aeda25a146103db57600080fd5b80632f2ff15d116101595780633b9dce05116101335780633b9dce05146103115780634f1ef2861461033157806352d1902d146103445780635eb399681461035957600080fd5b80632f2ff15d146102b157806336568abe146102d15780633659cfe6146102f157600080fd5b806301ffc9a7146101a1578063022f2354146101d657806318712c21146102065780631f9b00041461022857806320c91c0314610261578063248a9ca314610281575b600080fd5b3480156101ad57600080fd5b506101c16101bc366004611f71565b610552565b60405190151581526020015b60405180910390f35b3480156101e257600080fd5b506101f860008051602061282683398151915281565b6040519081526020016101cd565b34801561021257600080fd5b50610226610221366004611f9b565b610563565b005b34801561023457600080fd5b506101f8610243366004612068565b805160208183018101805161012e8252928201919093012091525481565b34801561026d57600080fd5b5061022661027c3660046120c0565b6105ec565b34801561028d57600080fd5b506101f861029c3660046120fc565b600090815260c9602052604090206001015490565b3480156102bd57600080fd5b506102266102cc36600461212c565b6106f3565b3480156102dd57600080fd5b506102266102ec36600461212c565b61071d565b3480156102fd57600080fd5b5061022661030c366004612158565b6107a0565b34801561031d57600080fd5b5061022661032c366004612158565b61087f565b61022661033f366004612173565b6108d6565b34801561035057600080fd5b506101f86109a2565b34801561036557600080fd5b506103796103743660046120fc565b610a55565b6040516101cd99989796959493929190612224565b34801561039a57600080fd5b506102266103a93660046122d7565b610b8e565b3480156103ba57600080fd5b506103ce6103c93660046120fc565b610f79565b6040516101cd919061238b565b3480156103e757600080fd5b506101f86000805160206127bf83398151915281565b34801561040957600080fd5b506101c161041836600461212c565b6110f1565b34801561042957600080fd5b506101f8600081565b34801561043e57600080fd5b5061022661044d36600461212c565b61111c565b34801561045e57600080fd5b5061022661046d366004612158565b611215565b34801561047e57600080fd5b5061022661048d36600461246b565b61125f565b34801561049e57600080fd5b506102266104ad366004612158565b611348565b3480156104be57600080fd5b506102266104cd366004612158565b611378565b3480156104de57600080fd5b506103ce6104ed366004612068565b6114dc565b3480156104fe57600080fd5b5061022661050d36600461212c565b611517565b34801561051e57600080fd5b5061022661052d36600461246b565b61153c565b34801561053e57600080fd5b5061022661054d366004612158565b611604565b600061055d82611627565b92915050565b60008051602061282683398151915261057b81611658565b8161012d84815481106105905761059061248e565b9060005260206000209060080201600701819055507f38a1c862d2f574437718aa03a28058b8b13655b4c53dbcf0ff957b2540523f2683836040516105df929190918252602082015260400190565b60405180910390a1505050565b60008051602061282683398151915261060481611658565b8261012d85815481106106195761061961248e565b906000526020600020906008020160010160106101000a8154816001600160401b0302191690836001600160401b031602179055508161012d85815481106106635761066361248e565b906000526020600020906008020160010160186101000a8154816001600160401b0302191690836001600160401b031602179055507f4c2ba6fbc88f10b0e039f9a0b3feaab8859f7d0d9a12e1310e7fbe7d7924c76a8484846040516106e5939291909283526001600160401b03918216602084015216604082015260600190565b60405180910390a150505050565b600082815260c9602052604090206001015461070e81611658565b6107188383611662565b505050565b6001600160a01b03811633146107925760405162461bcd60e51b815260206004820152602f60248201527f416363657373436f6e74726f6c3a2063616e206f6e6c792072656e6f756e636560448201526e103937b632b9903337b91039b2b63360891b60648201526084015b60405180910390fd5b61079c82826116e8565b5050565b6001600160a01b037f00000000000000000000000000000000000000000000000000000000000000001630036107e85760405162461bcd60e51b8152600401610789906124a4565b7f00000000000000000000000000000000000000000000000000000000000000006001600160a01b03166108316000805160206127df833981519152546001600160a01b031690565b6001600160a01b0316146108575760405162461bcd60e51b8152600401610789906124f0565b6108608161174f565b6040805160008082526020820190925261087c9183919061175a565b50565b60008051602061282683398151915261089781611658565b6001600160a01b0382166108be5760405163d92e233d60e01b815260040160405180910390fd5b61079c6000805160206127bf83398151915283611662565b6001600160a01b037f000000000000000000000000000000000000000000000000000000000000000016300361091e5760405162461bcd60e51b8152600401610789906124a4565b7f00000000000000000000000000000000000000000000000000000000000000006001600160a01b03166109676000805160206127df833981519152546001600160a01b031690565b6001600160a01b03161461098d5760405162461bcd60e51b8152600401610789906124f0565b6109968261174f565b61079c8282600161175a565b6000306001600160a01b037f00000000000000000000000000000000000000000000000000000000000000001614610a425760405162461bcd60e51b815260206004820152603860248201527f555550535570677261646561626c653a206d757374206e6f742062652063616c60448201527f6c6564207468726f7567682064656c656761746563616c6c00000000000000006064820152608401610789565b506000805160206127df83398151915290565b61012d8181548110610a6657600080fd5b600091825260209182902060089091020180546001820154604080516060810182526002850154815260038501546001600160801b0381811697830197909752600160801b90819004871692820192909252600485018054949750958316956001600160401b03928404831695600160c01b9094049092169390929190610aec9061253c565b80601f0160208091040260200160405190810160405280929190818152602001828054610b189061253c565b8015610b655780601f10610b3a57610100808354040283529160200191610b65565b820191906000526020600020905b815481529060010190602001808311610b4857829003601f168201915b505050506005830154600684015460079094015492936001600160a01b03918216939116915089565b6000805160206127bf833981519152610ba681611658565b610bbe6000805160206127bf8339815191528b6110f1565b610c035760405162461bcd60e51b815260206004820152601660248201527527bbb732b91034b9903737ba10309031b932b0ba37b960511b6044820152606401610789565b866001600160801b0316600003610c2d576040516315ae672760e01b815260040160405180910390fd5b61012e85604051610c3e9190612576565b908152602001604051809103902054600014610c6f578460405163a1e7d46360e01b81526004016107899190612592565b61012d5415610c93578460405163a1e7d46360e01b81526004016107899190612592565b610ca4896309f8066760e31b6118c5565b610cc1576040516382542ee160e01b815260040160405180910390fd5b600061012d805490509050600060405180606001604052808b81526020018a6001600160801b03168152602001896001600160801b0316815250905061012d60405180610120016040528084815260200160006001600160801b03168152602001886001600160401b03168152602001876001600160401b031681526020018381526020018981526020018e6001600160a01b031681526020018d6001600160a01b031681526020018681525090806001815401808255809150506001900390600052602060002090600802016000909190919091506000820151816000015560208201518160010160006101000a8154816001600160801b0302191690836001600160801b0316021790555060408201518160010160106101000a8154816001600160401b0302191690836001600160401b0316021790555060608201518160010160186101000a8154816001600160401b0302191690836001600160401b031602179055506080820151816002016000820151816000015560208201518160010160006101000a8154816001600160801b0302191690836001600160801b0316021790555060408201518160010160106101000a8154816001600160801b0302191690836001600160801b03160217905550505060a0820151816004019081610eac91906125f3565b5060c08201516005820180546001600160a01b039283166001600160a01b03199182161790915560e084015160068401805491909316911617905561010090910151600790910155604051829061012e90610f08908a90612576565b90815260405190819003602001812091909155610f26908890612576565b6040519081900381206001600160a01b038d1682529083907fd7146dfb221999e9fbb0fb7dde3c603590b0bd2f3c75d0ec47d77dc913490b0b9060200160405180910390a3505050505050505050505050565b610f81611f0e565b61012d8281548110610f9557610f9561248e565b6000918252602091829020604080516101208101825260089093029091018054835260018101546001600160801b03808216858701526001600160401b03600160801b808404821687870152600160c01b9093041660608087019190915284519081018552600284015481526003840154808316978201979097529190950490941691840191909152608082019290925260048201805491929160a08401919061103e9061253c565b80601f016020809104026020016040519081016040528092919081815260200182805461106a9061253c565b80156110b75780601f1061108c576101008083540402835291602001916110b7565b820191906000526020600020905b81548152906001019060200180831161109a57829003601f168201915b505050918352505060058201546001600160a01b039081166020830152600683015416604082015260079091015460609091015292915050565b600091825260c9602090815260408084206001600160a01b0393909316845291905290205460ff1690565b60008051602061282683398151915261113481611658565b61114c6000805160206127bf833981519152836110f1565b6111985760405162461bcd60e51b815260206004820152601a60248201527f4e6577206f776e6572206973206e6f7420612063726561746f720000000000006044820152606401610789565b8161012d84815481106111ad576111ad61248e565b60009182526020918290206008919091020160050180546001600160a01b0319166001600160a01b0393841617905560408051868152928516918301919091527f5c979a59ec00077721bab764e52d273a83cd3cd803d2beffbed0bbd2edef8c3391016105df565b600061122081611658565b6001600160a01b0382166112475760405163d92e233d60e01b815260040160405180910390fd5b61079c60008051602061282683398151915283611662565b600061012d83815481106112755761127561248e565b6000918252602090912060089091020160068101549091506001600160a01b031633146112b557604051634f1f214760e01b815260040160405180910390fd5b600381015460018201546001600160801b03918216916112d7918591166126c8565b6001600160801b031611156112ff57604051632d400a1b60e01b815260040160405180910390fd5b60018101805483919060009061131f9084906001600160801b03166126c8565b92506101000a8154816001600160801b0302191690836001600160801b03160217905550505050565b60008051602061282683398151915261136081611658565b61079c6000805160206127bf833981519152836116e8565b600054610100900460ff16158080156113985750600054600160ff909116105b806113b25750303b1580156113b2575060005460ff166001145b6114155760405162461bcd60e51b815260206004820152602e60248201527f496e697469616c697a61626c653a20636f6e747261637420697320616c72656160448201526d191e481a5b9a5d1a585b1a5e995960921b6064820152608401610789565b6000805460ff191660011790558015611438576000805461ff0019166101001790555b6114406118e8565b6114486118e8565b611453600083611955565b61146b6000805160206127bf83398151915283611662565b61148360008051602061282683398151915283611662565b6114936394454e4d60e01b61195f565b801561079c576000805461ff0019169055604051600181527f7f26b83ff96e1f2b6a682f133852f6798a09c465da95921460cefb38474024989060200160405180910390a15050565b6114e4611f0e565b61012d61012e836040516114f89190612576565b90815260200160405180910390205481548110610f9557610f9561248e565b600082815260c9602052604090206001015461153281611658565b61071883836116e8565b60008051602061282683398151915261155481611658565b816001600160801b031660000361157e576040516315ae672760e01b815260040160405180910390fd5b8161012d84815481106115935761159361248e565b60009182526020918290206008919091020160030180546fffffffffffffffffffffffffffffffff19166001600160801b0393841617905560408051868152928516918301919091527ffd907f4a6bc86e8f99fe5b04dd4c6826631f862071ab3f55f9804563681914be91016105df565b600061160f81611658565b61079c600080516020612826833981519152836116e8565b6000611632826119de565b8061055d5750506001600160e01b031916600090815260fb602052604090205460ff1690565b61087c8133611a13565b61166c82826110f1565b61079c57600082815260c9602090815260408083206001600160a01b03851684529091529020805460ff191660011790556116a43390565b6001600160a01b0316816001600160a01b0316837f2f8788117e7eff1d82e926ec794901d17c78024a50270940304540a733656f0d60405160405180910390a45050565b6116f282826110f1565b1561079c57600082815260c9602090815260408083206001600160a01b0385168085529252808320805460ff1916905551339285917ff6391f5c32d9c69d2a47ea670b442974b53935d1edc7fd64eb21e047a839171b9190a45050565b600061079c81611658565b7f4910fdfa16fed3260ed0e7147f7cc6da11a60208b5b9406d12a635614ffd91435460ff161561178d5761071883611a6c565b826001600160a01b03166352d1902d6040518163ffffffff1660e01b8152600401602060405180830381865afa9250505080156117e7575060408051601f3d908101601f191682019092526117e4918101906126ef565b60015b61184a5760405162461bcd60e51b815260206004820152602e60248201527f45524331393637557067726164653a206e657720696d706c656d656e7461746960448201526d6f6e206973206e6f74205555505360901b6064820152608401610789565b6000805160206127df83398151915281146118b95760405162461bcd60e51b815260206004820152602960248201527f45524331393637557067726164653a20756e737570706f727465642070726f786044820152681a58589b195555525160ba1b6064820152608401610789565b50610718838383611b08565b60006118d083611b33565b80156118e157506118e18383611b66565b9392505050565b600054610100900460ff166119535760405162461bcd60e51b815260206004820152602b60248201527f496e697469616c697a61626c653a20636f6e7472616374206973206e6f74206960448201526a6e697469616c697a696e6760a81b6064820152608401610789565b565b61079c8282611662565b6001600160e01b031980821690036119b95760405162461bcd60e51b815260206004820152601c60248201527f4552433136353a20696e76616c696420696e74657266616365206964000000006044820152606401610789565b6001600160e01b031916600090815260fb60205260409020805460ff19166001179055565b60006001600160e01b03198216637965db0b60e01b148061055d57506301ffc9a760e01b6001600160e01b031983161461055d565b611a1d82826110f1565b61079c57611a2a81611bef565b611a35836020611c01565b604051602001611a46929190612708565b60408051601f198184030181529082905262461bcd60e51b825261078991600401612592565b6001600160a01b0381163b611ad95760405162461bcd60e51b815260206004820152602d60248201527f455243313936373a206e657720696d706c656d656e746174696f6e206973206e60448201526c1bdd08184818dbdb9d1c9858dd609a1b6064820152608401610789565b6000805160206127df83398151915280546001600160a01b0319166001600160a01b0392909216919091179055565b611b1183611d9c565b600082511180611b1e5750805b1561071857611b2d8383611ddc565b50505050565b6000611b46826301ffc9a760e01b611b66565b801561055d5750611b5f826001600160e01b0319611b66565b1592915050565b604080516001600160e01b03198316602480830191909152825180830390910181526044909101909152602080820180516001600160e01b03166301ffc9a760e01b178152825160009392849283928392918391908a617530fa92503d91506000519050828015611bd8575060208210155b8015611be45750600081115b979650505050505050565b606061055d6001600160a01b03831660145b60606000611c1083600261277d565b611c1b906002612794565b6001600160401b03811115611c3257611c32611fbd565b6040519080825280601f01601f191660200182016040528015611c5c576020820181803683370190505b509050600360fc1b81600081518110611c7757611c7761248e565b60200101906001600160f81b031916908160001a905350600f60fb1b81600181518110611ca657611ca661248e565b60200101906001600160f81b031916908160001a9053506000611cca84600261277d565b611cd5906001612794565b90505b6001811115611d4d576f181899199a1a9b1b9c1cb0b131b232b360811b85600f1660108110611d0957611d0961248e565b1a60f81b828281518110611d1f57611d1f61248e565b60200101906001600160f81b031916908160001a90535060049490941c93611d46816127a7565b9050611cd8565b5083156118e15760405162461bcd60e51b815260206004820181905260248201527f537472696e67733a20686578206c656e67746820696e73756666696369656e746044820152606401610789565b611da581611a6c565b6040516001600160a01b038216907fbc7cd75a20ee27fd9adebab32041f755214dbc6bffa90cc0225b39da2e5c2d3b90600090a250565b60606001600160a01b0383163b611e445760405162461bcd60e51b815260206004820152602660248201527f416464726573733a2064656c65676174652063616c6c20746f206e6f6e2d636f6044820152651b9d1c9858dd60d21b6064820152608401610789565b600080846001600160a01b031684604051611e5f9190612576565b600060405180830381855af49150503d8060008114611e9a576040519150601f19603f3d011682016040523d82523d6000602084013e611e9f565b606091505b5091509150611ec782826040518060600160405280602781526020016127ff60279139611ed0565b95945050505050565b60608315611edf5750816118e1565b6118e18383815115611ef45781518083602001fd5b8060405162461bcd60e51b81526004016107899190612592565b60408051610120810182526000808252602080830182905282840182905260608084018390528451908101855282815290810182905292830152906080820190815260606020820181905260006040830181905290820181905260809091015290565b600060208284031215611f8357600080fd5b81356001600160e01b0319811681146118e157600080fd5b60008060408385031215611fae57600080fd5b50508035926020909101359150565b634e487b7160e01b600052604160045260246000fd5b60006001600160401b0380841115611fed57611fed611fbd565b604051601f8501601f19908116603f0116810190828211818310171561201557612015611fbd565b8160405280935085815286868601111561202e57600080fd5b858560208301376000602087830101525050509392505050565b600082601f83011261205957600080fd5b6118e183833560208501611fd3565b60006020828403121561207a57600080fd5b81356001600160401b0381111561209057600080fd5b61209c84828501612048565b949350505050565b80356001600160401b03811681146120bb57600080fd5b919050565b6000806000606084860312156120d557600080fd5b833592506120e5602085016120a4565b91506120f3604085016120a4565b90509250925092565b60006020828403121561210e57600080fd5b5035919050565b80356001600160a01b03811681146120bb57600080fd5b6000806040838503121561213f57600080fd5b8235915061214f60208401612115565b90509250929050565b60006020828403121561216a57600080fd5b6118e182612115565b6000806040838503121561218657600080fd5b61218f83612115565b915060208301356001600160401b038111156121aa57600080fd5b8301601f810185136121bb57600080fd5b6121ca85823560208401611fd3565b9150509250929050565b60005b838110156121ef5781810151838201526020016121d7565b50506000910152565b600081518084526122108160208601602086016121d4565b601f01601f19169290920160200192915050565b8981526001600160801b03891660208201526001600160401b0388811660408301528716606082015260006101606122826080840189805182526020808201516001600160801b039081169184019190915260409182015116910152565b8060e0840152612294818401886121f8565b6001600160a01b0396871661010085015294909516610120830152506101400152979650505050505050565b80356001600160801b03811681146120bb57600080fd5b60008060008060008060008060006101208a8c0312156122f657600080fd5b6122ff8a612115565b985061230d60208b01612115565b975060408a0135965061232260608b016122c0565b955061233060808b016122c0565b945060a08a01356001600160401b0381111561234b57600080fd5b6123578c828d01612048565b94505061236660c08b016120a4565b925061237460e08b016120a4565b91506101008a013590509295985092959850929598565b6020815281516020820152600060208301516123b260408401826001600160801b03169052565b5060408301516001600160401b03811660608401525060608301516001600160401b0381166080840152506080830151805160a084015260208101516001600160801b0390811660c085015260408201511660e08401525060a083015161016061010081818601526124286101808601846121f8565b925060c08601516124456101208701826001600160a01b03169052565b5060e08601516001600160a01b0316610140860152909401519390920192909252919050565b6000806040838503121561247e57600080fd5b8235915061214f602084016122c0565b634e487b7160e01b600052603260045260246000fd5b6020808252602c908201527f46756e6374696f6e206d7573742062652063616c6c6564207468726f7567682060408201526b19195b1959d85d1958d85b1b60a21b606082015260800190565b6020808252602c908201527f46756e6374696f6e206d7573742062652063616c6c6564207468726f7567682060408201526b6163746976652070726f787960a01b606082015260800190565b600181811c9082168061255057607f821691505b60208210810361257057634e487b7160e01b600052602260045260246000fd5b50919050565b600082516125888184602087016121d4565b9190910192915050565b6020815260006118e160208301846121f8565b601f82111561071857600081815260208120601f850160051c810160208610156125cc5750805b601f850160051c820191505b818110156125eb578281556001016125d8565b505050505050565b81516001600160401b0381111561260c5761260c611fbd565b6126208161261a845461253c565b846125a5565b602080601f831160018114612655576000841561263d5750858301515b600019600386901b1c1916600185901b1785556125eb565b600085815260208120601f198616915b8281101561268457888601518255948401946001909101908401612665565b50858210156126a25787850151600019600388901b60f8161c191681555b5050505050600190811b01905550565b634e487b7160e01b600052601160045260246000fd5b6001600160801b038181168382160190808211156126e8576126e86126b2565b5092915050565b60006020828403121561270157600080fd5b5051919050565b7f416363657373436f6e74726f6c3a206163636f756e74200000000000000000008152600083516127408160178501602088016121d4565b7001034b99036b4b9b9b4b733903937b6329607d1b60179184019182015283516127718160288401602088016121d4565b01602801949350505050565b808202811582820484141761055d5761055d6126b2565b8082018082111561055d5761055d6126b2565b6000816127b6576127b66126b2565b50600019019056fe828634d95e775031b9ff576b159a8509d3053581a8c9c4d7d86899e0afcd882f360894a13ba1a3210667c828492db98dca3e2076cc3735a920a3ca505d382bbc416464726573733a206c6f772d6c6576656c2064656c65676174652063616c6c206661696c6564d2e4c2619ea6e0faebc405d89445161c041e30fe03373ea0473da142d57d4514a2646970667358221220ce29b77f90136123f267bb82b5f31392aa79fc99907fbaa5937ddd010c29465c64736f6c63430008110033",
  "linkReferences": {},
  "deployedLinkReferences": {}
}