{
  "_format": "hh-sol-artifact-1",
  "contractName": "EverNFT",
  "sourceName": "contracts/EverNFT.sol",
  "abi": [
    {
      "inputs": [],
      "name": "DropAlreadyExists",
      "type": "error"
    },
    {
      "inputs": [],
      "name": "DropSoldOut",
      "type": "error"
    },
    {
      "inputs": [],
      "name": "IncorrectAmountSent",
      "type": "error"
    },
    {
      "inputs": [],
      "name": "InvalidInterface",
      "type": "error"
    },
    {
      "inputs": [],
      "name": "NotEnoughTokensAvailable",
      "type": "error"
    },
    {
      "inputs": [],
      "name": "SaleEnded",
      "type": "error"
    },
    {
      "inputs": [],
      "name": "SaleNotStarted",
      "type": "error"
    },
    {
      "inputs": [],
      "name": "UnauthorizedUpdate",
      "type": "error"
    },
    {
      "anonymous": false,
      "inputs": [
        {
          "indexed": false,
          "internalType": "address",
          "name": "previousAdmin",
          "type": "address"
        },
        {
          "indexed": false,
          "internalType": "address",
          "name": "newAdmin",
          "type": "address"
        }
      ],
      "name": "AdminChanged",
      "type": "event"
    },
    {
      "anonymous": false,
      "inputs": [
        {
          "indexed": true,
          "internalType": "address",
          "name": "owner",
          "type": "address"
        },
        {
          "indexed": true,
          "internalType": "address",
          "name": "approved",
          "type": "address"
        },
        {
          "indexed": true,
          "internalType": "uint256",
          "name": "tokenId",
          "type": "uint256"
        }
      ],
      "name": "Approval",
      "type": "event"
    },
    {
      "anonymous": false,
      "inputs": [
        {
          "indexed": true,
          "internalType": "address",
          "name": "owner",
          "type": "address"
        },
        {
          "indexed": true,
          "internalType": "address",
          "name": "operator",
          "type": "address"
        },
        {
          "indexed": false,
          "internalType": "bool",
          "name": "approved",
          "type": "bool"
        }
      ],
      "name": "ApprovalForAll",
      "type": "event"
    },
    {
      "anonymous": false,
      "inputs": [
        {
          "indexed": true,
          "internalType": "address",
          "name": "beacon",
          "type": "address"
        }
      ],
      "name": "BeaconUpgraded",
      "type": "event"
    },
    {
      "anonymous": false,
      "inputs": [
        {
          "indexed": false,
          "internalType": "uint8",
          "name": "version",
          "type": "uint8"
        }
      ],
      "name": "Initialized",
      "type": "event"
    },
    {
      "anonymous": false,
      "inputs": [
        {
          "indexed": false,
          "internalType": "uint256",
          "name": "dropId",
          "type": "uint256"
        },
        {
          "indexed": false,
          "internalType": "uint256",
          "name": "tokenId",
          "type": "uint256"
        }
      ],
      "name": "NewPrintMinted",
      "type": "event"
    },
    {
      "anonymous": false,
      "inputs": [
        {
          "indexed": true,
          "internalType": "address",
          "name": "previousOwner",
          "type": "address"
        },
        {
          "indexed": true,
          "internalType": "address",
          "name": "newOwner",
          "type": "address"
        }
      ],
      "name": "OwnershipTransferred",
      "type": "event"
    },
    {
      "anonymous": false,
      "inputs": [
        {
          "indexed": false,
          "internalType": "address",
          "name": "account",
          "type": "address"
        }
      ],
      "name": "Paused",
      "type": "event"
    },
    {
      "anonymous": false,
      "inputs": [
        {
          "indexed": true,
          "internalType": "address",
          "name": "from",
          "type": "address"
        },
        {
          "indexed": true,
          "internalType": "address",
          "name": "to",
          "type": "address"
        },
        {
          "indexed": true,
          "internalType": "uint256",
          "name": "tokenId",
          "type": "uint256"
        }
      ],
      "name": "Transfer",
      "type": "event"
    },
    {
      "anonymous": false,
      "inputs": [
        {
          "indexed": false,
          "internalType": "address",
          "name": "account",
          "type": "address"
        }
      ],
      "name": "Unpaused",
      "type": "event"
    },
    {
      "anonymous": false,
      "inputs": [
        {
          "indexed": true,
          "internalType": "address",
          "name": "implementation",
          "type": "address"
        }
      ],
      "name": "Upgraded",
      "type": "event"
    },
    {
      "inputs": [
        {
          "internalType": "address",
          "name": "to",
          "type": "address"
        },
        {
          "internalType": "uint256",
          "name": "tokenId",
          "type": "uint256"
        }
      ],
      "name": "approve",
      "outputs": [],
      "stateMutability": "nonpayable",
      "type": "function"
    },
    {
      "inputs": [
        {
          "internalType": "address",
          "name": "owner",
          "type": "address"
        }
      ],
      "name": "balanceOf",
      "outputs": [
        {
          "internalType": "uint256",
          "name": "",
          "type": "uint256"
        }
      ],
      "stateMutability": "view",
      "type": "function"
    },
    {
      "inputs": [],
      "name": "baseURI",
      "outputs": [
        {
          "internalType": "string",
          "name": "",
          "type": "string"
        }
      ],
      "stateMutability": "view",
      "type": "function"
    },
    {
      "inputs": [
        {
          "internalType": "uint256",
          "name": "",
          "type": "uint256"
        }
      ],
      "name": "dropIdPerToken",
      "outputs": [
        {
          "internalType": "uint256",
          "name": "",
          "type": "uint256"
        }
      ],
      "stateMutability": "view",
      "type": "function"
    },
    {
      "inputs": [],
      "name": "dropManager",
      "outputs": [
        {
          "internalType": "address",
          "name": "",
          "type": "address"
        }
      ],
      "stateMutability": "view",
      "type": "function"
    },
    {
      "inputs": [
        {
          "internalType": "uint256",
          "name": "tokenId",
          "type": "uint256"
        }
      ],
      "name": "getApproved",
      "outputs": [
        {
          "internalType": "address",
          "name": "",
          "type": "address"
        }
      ],
      "stateMutability": "view",
      "type": "function"
    },
    {
      "inputs": [
        {
          "internalType": "address",
          "name": "_dropManager",
          "type": "address"
        },
        {
          "internalType": "string",
          "name": "_baseURI",
          "type": "string"
        },
        {
          "internalType": "string",
          "name": "_name",
          "type": "string"
        },
        {
          "internalType": "string",
          "name": "_symbol",
          "type": "string"
        }
      ],
      "name": "initialize",
      "outputs": [],
      "stateMutability": "nonpayable",
      "type": "function"
    },
    {
      "inputs": [
        {
          "internalType": "address",
          "name": "owner",
          "type": "address"
        },
        {
          "internalType": "address",
          "name": "operator",
          "type": "address"
        }
      ],
      "name": "isApprovedForAll",
      "outputs": [
        {
          "internalType": "bool",
          "name": "",
          "type": "bool"
        }
      ],
      "stateMutability": "view",
      "type": "function"
    },
    {
      "inputs": [
        {
          "internalType": "address",
          "name": "_to",
          "type": "address"
        },
        {
          "internalType": "uint256",
          "name": "_dropId",
          "type": "uint256"
        },
        {
          "internalType": "uint128",
          "name": "_quantity",
          "type": "uint128"
        }
      ],
      "name": "mint",
      "outputs": [],
      "stateMutability": "payable",
      "type": "function"
    },
    {
      "inputs": [],
      "name": "name",
      "outputs": [
        {
          "internalType": "string",
          "name": "",
          "type": "string"
        }
      ],
      "stateMutability": "view",
      "type": "function"
    },
    {
      "inputs": [],
      "name": "owner",
      "outputs": [
        {
          "internalType": "address",
          "name": "",
          "type": "address"
        }
      ],
      "stateMutability": "view",
      "type": "function"
    },
    {
      "inputs": [
        {
          "internalType": "uint256",
          "name": "tokenId",
          "type": "uint256"
        }
      ],
      "name": "ownerOf",
      "outputs": [
        {
          "internalType": "address",
          "name": "",
          "type": "address"
        }
      ],
      "stateMutability": "view",
      "type": "function"
    },
    {
      "inputs": [],
      "name": "pause",
      "outputs": [],
      "stateMutability": "nonpayable",
      "type": "function"
    },
    {
      "inputs": [],
      "name": "paused",
      "outputs": [
        {
          "internalType": "bool",
          "name": "",
          "type": "bool"
        }
      ],
      "stateMutability": "view",
      "type": "function"
    },
    {
      "inputs": [],
      "name": "proxiableUUID",
      "outputs": [
        {
          "internalType": "bytes32",
          "name": "",
          "type": "bytes32"
        }
      ],
      "stateMutability": "view",
      "type": "function"
    },
    {
      "inputs": [],
      "name": "renounceOwnership",
      "outputs": [],
      "stateMutability": "nonpayable",
      "type": "function"
    },
    {
      "inputs": [
        {
          "internalType": "address",
          "name": "from",
          "type": "address"
        },
        {
          "internalType": "address",
          "name": "to",
          "type": "address"
        },
        {
          "internalType": "uint256",
          "name": "tokenId",
          "type": "uint256"
        }
      ],
      "name": "safeTransferFrom",
      "outputs": [],
      "stateMutability": "nonpayable",
      "type": "function"
    },
    {
      "inputs": [
        {
          "internalType": "address",
          "name": "from",
          "type": "address"
        },
        {
          "internalType": "address",
          "name": "to",
          "type": "address"
        },
        {
          "internalType": "uint256",
          "name": "tokenId",
          "type": "uint256"
        },
        {
          "internalType": "bytes",
          "name": "data",
          "type": "bytes"
        }
      ],
      "name": "safeTransferFrom",
      "outputs": [],
      "stateMutability": "nonpayable",
      "type": "function"
    },
    {
      "inputs": [
        {
          "internalType": "address",
          "name": "operator",
          "type": "address"
        },
        {
          "internalType": "bool",
          "name": "approved",
          "type": "bool"
        }
      ],
      "name": "setApprovalForAll",
      "outputs": [],
      "stateMutability": "nonpayable",
      "type": "function"
    },
    {
      "inputs": [
        {
          "internalType": "string",
          "name": "_newBaseURI",
          "type": "string"
        }
      ],
      "name": "setBaseURI",
      "outputs": [],
      "stateMutability": "nonpayable",
      "type": "function"
    },
    {
      "inputs": [
        {
          "internalType": "bytes4",
          "name": "interfaceId",
          "type": "bytes4"
        }
      ],
      "name": "supportsInterface",
      "outputs": [
        {
          "internalType": "bool",
          "name": "",
          "type": "bool"
        }
      ],
      "stateMutability": "view",
      "type": "function"
    },
    {
      "inputs": [],
      "name": "symbol",
      "outputs": [
        {
          "internalType": "string",
          "name": "",
          "type": "string"
        }
      ],
      "stateMutability": "view",
      "type": "function"
    },
    {
      "inputs": [
        {
          "internalType": "uint256",
          "name": "index",
          "type": "uint256"
        }
      ],
      "name": "tokenByIndex",
      "outputs": [
        {
          "internalType": "uint256",
          "name": "",
          "type": "uint256"
        }
      ],
      "stateMutability": "view",
      "type": "function"
    },
    {
      "inputs": [
        {
          "internalType": "address",
          "name": "owner",
          "type": "address"
        },
        {
          "internalType": "uint256",
          "name": "index",
          "type": "uint256"
        }
      ],
      "name": "tokenOfOwnerByIndex",
      "outputs": [
        {
          "internalType": "uint256",
          "name": "",
          "type": "uint256"
        }
      ],
      "stateMutability": "view",
      "type": "function"
    },
    {
      "inputs": [
        {
          "internalType": "uint256",
          "name": "tokenId",
          "type": "uint256"
        }
      ],
      "name": "tokenURI",
      "outputs": [
        {
          "internalType": "string",
          "name": "",
          "type": "string"
        }
      ],
      "stateMutability": "view",
      "type": "function"
    },
    {
      "inputs": [
        {
          "internalType": "address",
          "name": "_owner",
          "type": "address"
        }
      ],
      "name": "tokensOfOwner",
      "outputs": [
        {
          "internalType": "uint256[]",
          "name": "",
          "type": "uint256[]"
        }
      ],
      "stateMutability": "view",
      "type": "function"
    },
    {
      "inputs": [],
      "name": "totalSupply",
      "outputs": [
        {
          "internalType": "uint256",
          "name": "",
          "type": "uint256"
        }
      ],
      "stateMutability": "view",
      "type": "function"
    },
    {
      "inputs": [
        {
          "internalType": "address",
          "name": "from",
          "type": "address"
        },
        {
          "internalType": "address",
          "name": "to",
          "type": "address"
        },
        {
          "internalType": "uint256",
          "name": "tokenId",
          "type": "uint256"
        }
      ],
      "name": "transferFrom",
      "outputs": [],
      "stateMutability": "nonpayable",
      "type": "function"
    },
    {
      "inputs": [
        {
          "internalType": "address",
          "name": "newOwner",
          "type": "address"
        }
      ],
      "name": "transferOwnership",
      "outputs": [],
      "stateMutability": "nonpayable",
      "type": "function"
    },
    {
      "inputs": [],
      "name": "unpause",
      "outputs": [],
      "stateMutability": "nonpayable",
      "type": "function"
    },
    {
      "inputs": [
        {
          "internalType": "address",
          "name": "newImplementation",
          "type": "address"
        }
      ],
      "name": "upgradeTo",
      "outputs": [],
      "stateMutability": "nonpayable",
      "type": "function"
    },
    {
      "inputs": [
        {
          "internalType": "address",
          "name": "newImplementation",
          "type": "address"
        },
        {
          "internalType": "bytes",
          "name": "data",
          "type": "bytes"
        }
      ],
      "name": "upgradeToAndCall",
      "outputs": [],
      "stateMutability": "payable",
      "type": "function"
    }
  ],
  "bytecode": "0x60a06040523060805234801561001457600080fd5b5060805161346461004c600039600081816108b0015281816108f001528181610cb501528181610cf50152610e1d01526134646000f3fe6080604052600436106101e35760003560e01c80635f1e6f6d116101025780638da5cb5b11610095578063b88d4fde11610064578063b88d4fde14610550578063c87b56dd14610570578063e985e9c514610590578063f2fde38b146105da57600080fd5b80638da5cb5b146104dc5780638f53bc9e146104fa57806395d89b411461051b578063a22cb4651461053057600080fd5b806370a08231116100d157806370a0823114610465578063715018a6146104855780638456cb591461049a5780638462151c146104af57600080fd5b80635f1e6f6d146103e25780636096a278146104025780636352211e146104305780636c0360eb1461045057600080fd5b80633f4ba83a1161017a5780634f6ccce7116101495780634f6ccce71461037457806352d1902d1461039457806355f804b3146103a95780635c975abb146103c957600080fd5b80633f4ba83a1461031957806342842e0e1461032e578063499d10811461034e5780634f1ef2861461036157600080fd5b806318160ddd116101b657806318160ddd1461029957806323b872dd146102b95780632f745c59146102d95780633659cfe6146102f957600080fd5b806301ffc9a7146101e857806306fdde031461021d578063081812fc1461023f578063095ea7b314610277575b600080fd5b3480156101f457600080fd5b506102086102033660046127fa565b6105fa565b60405190151581526020015b60405180910390f35b34801561022957600080fd5b5061023261060b565b6040516102149190612867565b34801561024b57600080fd5b5061025f61025a36600461287a565b61069d565b6040516001600160a01b039091168152602001610214565b34801561028357600080fd5b506102976102923660046128a8565b6106c4565b005b3480156102a557600080fd5b50610193545b604051908152602001610214565b3480156102c557600080fd5b506102976102d43660046128d4565b6107de565b3480156102e557600080fd5b506102ab6102f43660046128a8565b61080f565b34801561030557600080fd5b50610297610314366004612915565b6108a6565b34801561032557600080fd5b50610297610985565b34801561033a57600080fd5b506102976103493660046128d4565b61099f565b61029761035c366004612947565b6109ba565b61029761036f366004612a75565b610cab565b34801561038057600080fd5b506102ab61038f36600461287a565b610d7b565b3480156103a057600080fd5b506102ab610e10565b3480156103b557600080fd5b506102976103c4366004612ac4565b610ec3565b3480156103d557600080fd5b5061012d5460ff16610208565b3480156103ee57600080fd5b506102976103fd366004612b35565b610ed9565b34801561040e57600080fd5b506102ab61041d36600461287a565b6101f86020526000908152604090205481565b34801561043c57600080fd5b5061025f61044b36600461287a565b611067565b34801561045c57600080fd5b506102326110c7565b34801561047157600080fd5b506102ab610480366004612915565b6110d7565b34801561049157600080fd5b5061029761115d565b3480156104a657600080fd5b5061029761116f565b3480156104bb57600080fd5b506104cf6104ca366004612915565b611187565b6040516102149190612bcf565b3480156104e857600080fd5b506097546001600160a01b031661025f565b34801561050657600080fd5b506101f75461025f906001600160a01b031681565b34801561052757600080fd5b50610232611246565b34801561053c57600080fd5b5061029761054b366004612c13565b611255565b34801561055c57600080fd5b5061029761056b366004612c51565b611260565b34801561057c57600080fd5b5061023261058b36600461287a565b611292565b34801561059c57600080fd5b506102086105ab366004612cb0565b6001600160a01b0391821660009081526101006020908152604080832093909416825291909152205460ff1690565b3480156105e657600080fd5b506102976105f5366004612915565b611306565b60006106058261137c565b92915050565b606060fb805461061a90612cde565b80601f016020809104026020016040519081016040528092919081815260200182805461064690612cde565b80156106935780601f1061066857610100808354040283529160200191610693565b820191906000526020600020905b81548152906001019060200180831161067657829003601f168201915b5050505050905090565b60006106a8826113ae565b50600090815260ff60205260409020546001600160a01b031690565b60006106cf82611067565b9050806001600160a01b0316836001600160a01b0316036107415760405162461bcd60e51b815260206004820152602160248201527f4552433732313a20617070726f76616c20746f2063757272656e74206f776e656044820152603960f91b60648201526084015b60405180910390fd5b336001600160a01b038216148061075d575061075d81336105ab565b6107cf5760405162461bcd60e51b815260206004820152603d60248201527f4552433732313a20617070726f76652063616c6c6572206973206e6f7420746f60448201527f6b656e206f776e6572206f7220617070726f76656420666f7220616c6c0000006064820152608401610738565b6107d9838361140d565b505050565b6107e8338261147b565b6108045760405162461bcd60e51b815260040161073890612d12565b6107d98383836114fb565b600061081a836110d7565b821061087c5760405162461bcd60e51b815260206004820152602b60248201527f455243373231456e756d657261626c653a206f776e657220696e646578206f7560448201526a74206f6620626f756e647360a81b6064820152608401610738565b506001600160a01b0391909116600090815261019160209081526040808320938352929052205490565b6001600160a01b037f00000000000000000000000000000000000000000000000000000000000000001630036108ee5760405162461bcd60e51b815260040161073890612d5f565b7f00000000000000000000000000000000000000000000000000000000000000006001600160a01b03166109376000805160206133e8833981519152546001600160a01b031690565b6001600160a01b03161461095d5760405162461bcd60e51b815260040161073890612dab565b6109668161166c565b6040805160008082526020820190925261098291839190611674565b50565b61098d6117df565b610995611839565b61099d611883565b565b6107d983838360405180602001604052806000815250611260565b6109c26118d6565b6101f754604051636787d44960e01b8152600481018490526000916001600160a01b031690636787d44990602401600060405180830381865afa158015610a0d573d6000803e3d6000fd5b505050506040513d6000823e601f3d908101601f19168201604052610a359190810190612edc565b90508060800151602001516001600160801b031681602001516001600160801b031603610a75576040516306d6b15160e51b815260040160405180910390fd5b8060800151602001516001600160801b0316828260200151610a979190612fd2565b6001600160801b03161115610abf57604051632d400a1b60e01b815260040160405180910390fd5b80604001516001600160401b0316421015610aed576040516316851a3760e11b815260040160405180910390fd5b80606001516001600160401b0316421115610b1b57604051630bd8a3eb60e01b815260040160405180910390fd5b608081015151610b35906001600160801b03841690612ff9565b3414610b54576040516319a6bd0f60e01b815260040160405180910390fd5b60005b826001600160801b0316811015610bed57610b776101f680546001019055565b6000610b836101f65490565b835160008281526101f860205260409020559050610ba1868261191d565b825160408051918252602082018390527fafc352758122f8adf30e90014135d38ce524d5af8adf80d9bea054f2e1956209910160405180910390a150610be681613010565b9050610b57565b506101f7548151604051635d3aeb3760e11b815260048101919091526001600160801b03841660248201526001600160a01b039091169063ba75d66e90604401600060405180830381600087803b158015610c4757600080fd5b505af1158015610c5b573d6000803e3d6000fd5b505050506000341115610ca55760c08101516040516001600160a01b03909116903480156108fc02916000818181858888f19350505050158015610ca3573d6000803e3d6000fd5b505b50505050565b6001600160a01b037f0000000000000000000000000000000000000000000000000000000000000000163003610cf35760405162461bcd60e51b815260040161073890612d5f565b7f00000000000000000000000000000000000000000000000000000000000000006001600160a01b0316610d3c6000805160206133e8833981519152546001600160a01b031690565b6001600160a01b031614610d625760405162461bcd60e51b815260040161073890612dab565b610d6b8261166c565b610d7782826001611674565b5050565b6000610d876101935490565b8210610dea5760405162461bcd60e51b815260206004820152602c60248201527f455243373231456e756d657261626c653a20676c6f62616c20696e646578206f60448201526b7574206f6620626f756e647360a01b6064820152608401610738565b6101938281548110610dfe57610dfe613029565b90600052602060002001549050919050565b6000306001600160a01b037f00000000000000000000000000000000000000000000000000000000000000001614610eb05760405162461bcd60e51b815260206004820152603860248201527f555550535570677261646561626c653a206d757374206e6f742062652063616c60448201527f6c6564207468726f7567682064656c656761746563616c6c00000000000000006064820152608401610738565b506000805160206133e883398151915290565b610ecb6117df565b6101f56107d982848361308d565b600054610100900460ff1615808015610ef95750600054600160ff909116105b80610f135750303b158015610f13575060005460ff166001145b610f765760405162461bcd60e51b815260206004820152602e60248201527f496e697469616c697a61626c653a20636f6e747261637420697320616c72656160448201526d191e481a5b9a5d1a585b1a5e995960921b6064820152608401610738565b6000805460ff191660011790558015610f99576000805461ff0019166101001790555b610fa1611937565b610fab838361195e565b610fb361198f565b610fc485635049b31160e11b6119be565b610fe1576040516382542ee160e01b815260040160405180910390fd5b6101f5610fee858261314c565b506101f780546001600160a01b0319166001600160a01b03871617905561101b63278c815360e11b6119da565b8015610ca3576000805461ff0019169055604051600181527f7f26b83ff96e1f2b6a682f133852f6798a09c465da95921460cefb38474024989060200160405180910390a15050505050565b600081815260fd60205260408120546001600160a01b0316806106055760405162461bcd60e51b8152602060048201526018602482015277115490cdcc8c4e881a5b9d985b1a59081d1bdad95b88125160421b6044820152606401610738565b60606101f5805461061a90612cde565b60006001600160a01b0382166111415760405162461bcd60e51b815260206004820152602960248201527f4552433732313a2061646472657373207a65726f206973206e6f7420612076616044820152683634b21037bbb732b960b91b6064820152608401610738565b506001600160a01b0316600090815260fe602052604090205490565b6111656117df565b61099d6000611a5a565b6111776117df565b61117f6118d6565b61099d611aac565b60606000611194836110d7565b9050806000036111b85760408051600080825260208201909252905b509392505050565b6000816001600160401b038111156111d2576111d2612989565b6040519080825280602002602001820160405280156111fb578160200160208202803683370190505b50905060005b828110156111b057611213858261080f565b82828151811061122557611225613029565b602090810291909101015261123981613010565b9050611201565b50919050565b606060fc805461061a90612cde565b610d77338383611aea565b61126a338361147b565b6112865760405162461bcd60e51b815260040161073890612d12565b610ca584848484611bb9565b606061129d826113ae565b60006112b460408051602081019091526000815290565b905060008151116112d457604051806020016040528060008152506112ff565b806112de84611bec565b6040516020016112ef92919061320b565b6040516020818303038152906040525b9392505050565b61130e6117df565b6001600160a01b0381166113735760405162461bcd60e51b815260206004820152602660248201527f4f776e61626c653a206e6577206f776e657220697320746865207a65726f206160448201526564647265737360d01b6064820152608401610738565b61098281611a5a565b600061138782611c7e565b806106055750506001600160e01b03191660009081526101c3602052604090205460ff1690565b600081815260fd60205260409020546001600160a01b03166109825760405162461bcd60e51b8152602060048201526018602482015277115490cdcc8c4e881a5b9d985b1a59081d1bdad95b88125160421b6044820152606401610738565b600081815260ff6020526040902080546001600160a01b0319166001600160a01b038416908117909155819061144282611067565b6001600160a01b03167f8c5be1e5ebec7d5bd14f71427d1e84f3dd0314c0f7b2291e5b200ac8c7c3b92560405160405180910390a45050565b60008061148783611067565b9050806001600160a01b0316846001600160a01b031614806114cf57506001600160a01b038082166000908152610100602090815260408083209388168352929052205460ff165b806114f35750836001600160a01b03166114e88461069d565b6001600160a01b0316145b949350505050565b826001600160a01b031661150e82611067565b6001600160a01b0316146115345760405162461bcd60e51b81526004016107389061323a565b6001600160a01b0382166115965760405162461bcd60e51b8152602060048201526024808201527f4552433732313a207472616e7366657220746f20746865207a65726f206164646044820152637265737360e01b6064820152608401610738565b6115a38383836001611ca3565b826001600160a01b03166115b682611067565b6001600160a01b0316146115dc5760405162461bcd60e51b81526004016107389061323a565b600081815260ff6020908152604080832080546001600160a01b03199081169091556001600160a01b0387811680865260fe855283862080546000190190559087168086528386208054600101905586865260fd90945282852080549092168417909155905184937fddf252ad1be2c89b69c2b068fc378daa952ba7f163c4a11628f55a4df523b3ef91a4505050565b6109826117df565b7f4910fdfa16fed3260ed0e7147f7cc6da11a60208b5b9406d12a635614ffd91435460ff16156116a7576107d983611cb7565b826001600160a01b03166352d1902d6040518163ffffffff1660e01b8152600401602060405180830381865afa925050508015611701575060408051601f3d908101601f191682019092526116fe9181019061327f565b60015b6117645760405162461bcd60e51b815260206004820152602e60248201527f45524331393637557067726164653a206e657720696d706c656d656e7461746960448201526d6f6e206973206e6f74205555505360901b6064820152608401610738565b6000805160206133e883398151915281146117d35760405162461bcd60e51b815260206004820152602960248201527f45524331393637557067726164653a20756e737570706f727465642070726f786044820152681a58589b195555525160ba1b6064820152608401610738565b506107d9838383611d53565b6097546001600160a01b0316331461099d5760405162461bcd60e51b815260206004820181905260248201527f4f776e61626c653a2063616c6c6572206973206e6f7420746865206f776e65726044820152606401610738565b61012d5460ff1661099d5760405162461bcd60e51b815260206004820152601460248201527314185d5cd8589b194e881b9bdd081c185d5cd95960621b6044820152606401610738565b61188b611839565b61012d805460ff191690557f5db9ee0a495bf2e6ff9c91a7834c1ba4fdd244a5e8aa4e537bd38aeae4b073aa335b6040516001600160a01b03909116815260200160405180910390a1565b61012d5460ff161561099d5760405162461bcd60e51b815260206004820152601060248201526f14185d5cd8589b194e881c185d5cd95960821b6044820152606401610738565b610d77828260405180602001604052806000815250611d78565b600054610100900460ff1661099d5760405162461bcd60e51b815260040161073890613298565b600054610100900460ff166119855760405162461bcd60e51b815260040161073890613298565b610d778282611dab565b600054610100900460ff166119b65760405162461bcd60e51b815260040161073890613298565b61099d611deb565b60006119c983611e1b565b80156112ff57506112ff8383611e4e565b6001600160e01b03198082169003611a345760405162461bcd60e51b815260206004820152601c60248201527f4552433136353a20696e76616c696420696e74657266616365206964000000006044820152606401610738565b6001600160e01b03191660009081526101c360205260409020805460ff19166001179055565b609780546001600160a01b038381166001600160a01b0319831681179093556040519116919082907f8be0079c531659141344cd1fd0a4f28419497f9722a3daafe3b4186f6b6457e090600090a35050565b611ab46118d6565b61012d805460ff191660011790557f62e78cea01bee320cd4e420270b5ea74000d11b0c9f74754ebdbfc544b05a2586118b93390565b816001600160a01b0316836001600160a01b031603611b4b5760405162461bcd60e51b815260206004820152601960248201527f4552433732313a20617070726f766520746f2063616c6c6572000000000000006044820152606401610738565b6001600160a01b0383811660008181526101006020908152604080832094871680845294825291829020805460ff191686151590811790915591519182527f17307eab39ab6107e8899845ad3d59bd9653f200f220920489ca2b5937696c31910160405180910390a3505050565b611bc48484846114fb565b611bd084848484611ed7565b610ca55760405162461bcd60e51b8152600401610738906132e3565b60606000611bf983611fd8565b60010190506000816001600160401b03811115611c1857611c18612989565b6040519080825280601f01601f191660200182016040528015611c42576020820181803683370190505b5090508181016020015b600019016f181899199a1a9b1b9c1cb0b131b232b360811b600a86061a8153600a8504945084611c4c57509392505050565b60006001600160e01b0319821663780e9d6360e01b14806106055750610605826120b0565b611cab6118d6565b610ca584848484612100565b6001600160a01b0381163b611d245760405162461bcd60e51b815260206004820152602d60248201527f455243313936373a206e657720696d706c656d656e746174696f6e206973206e60448201526c1bdd08184818dbdb9d1c9858dd609a1b6064820152608401610738565b6000805160206133e883398151915280546001600160a01b0319166001600160a01b0392909216919091179055565b611d5c8361223b565b600082511180611d695750805b156107d957610ca5838361227b565b611d82838361236f565b611d8f6000848484611ed7565b6107d95760405162461bcd60e51b8152600401610738906132e3565b600054610100900460ff16611dd25760405162461bcd60e51b815260040161073890613298565b60fb611dde838261314c565b5060fc6107d9828261314c565b600054610100900460ff16611e125760405162461bcd60e51b815260040161073890613298565b61099d33611a5a565b6000611e2e826301ffc9a760e01b611e4e565b80156106055750611e47826001600160e01b0319611e4e565b1592915050565b604080516001600160e01b03198316602480830191909152825180830390910181526044909101909152602080820180516001600160e01b03166301ffc9a760e01b178152825160009392849283928392918391908a617530fa92503d91506000519050828015611ec0575060208210155b8015611ecc5750600081115b979650505050505050565b60006001600160a01b0384163b15611fcd57604051630a85bd0160e11b81526001600160a01b0385169063150b7a0290611f1b903390899088908890600401613335565b6020604051808303816000875af1925050508015611f56575060408051601f3d908101601f19168201909252611f5391810190613372565b60015b611fb3573d808015611f84576040519150601f19603f3d011682016040523d82523d6000602084013e611f89565b606091505b508051600003611fab5760405162461bcd60e51b8152600401610738906132e3565b805181602001fd5b6001600160e01b031916630a85bd0160e11b1490506114f3565b506001949350505050565b60008072184f03e93ff9f4daa797ed6e38ed64bf6a1f0160401b83106120175772184f03e93ff9f4daa797ed6e38ed64bf6a1f0160401b830492506040015b6d04ee2d6d415b85acef81000000008310612043576d04ee2d6d415b85acef8100000000830492506020015b662386f26fc10000831061206157662386f26fc10000830492506010015b6305f5e1008310612079576305f5e100830492506008015b612710831061208d57612710830492506004015b6064831061209f576064830492506002015b600a83106106055760010192915050565b60006001600160e01b031982166380ac58cd60e01b14806120e157506001600160e01b03198216635b5e139f60e01b145b8061060557506301ffc9a760e01b6001600160e01b0319831614610605565b61210c84848484612508565b600181111561217b5760405162461bcd60e51b815260206004820152603560248201527f455243373231456e756d657261626c653a20636f6e7365637574697665207472604482015274185b9cd9995c9cc81b9bdd081cdd5c1c1bdc9d1959605a1b6064820152608401610738565b816001600160a01b0385166121d9576121d4816101938054600083815261019460205260408120829055600182018355919091527ffc8af01f449989052b52093a58fc9f42d0b11f0c6dd5dca0463dab62346ccc680155565b6121fc565b836001600160a01b0316856001600160a01b0316146121fc576121fc858261257c565b6001600160a01b038416612218576122138161261e565b610ca3565b846001600160a01b0316846001600160a01b031614610ca357610ca384826126d3565b61224481611cb7565b6040516001600160a01b038216907fbc7cd75a20ee27fd9adebab32041f755214dbc6bffa90cc0225b39da2e5c2d3b90600090a250565b60606001600160a01b0383163b6122e35760405162461bcd60e51b815260206004820152602660248201527f416464726573733a2064656c65676174652063616c6c20746f206e6f6e2d636f6044820152651b9d1c9858dd60d21b6064820152608401610738565b600080846001600160a01b0316846040516122fe919061338f565b600060405180830381855af49150503d8060008114612339576040519150601f19603f3d011682016040523d82523d6000602084013e61233e565b606091505b5091509150612366828260405180606001604052806027815260200161340860279139612719565b95945050505050565b6001600160a01b0382166123c55760405162461bcd60e51b815260206004820181905260248201527f4552433732313a206d696e7420746f20746865207a65726f20616464726573736044820152606401610738565b600081815260fd60205260409020546001600160a01b03161561242a5760405162461bcd60e51b815260206004820152601c60248201527f4552433732313a20746f6b656e20616c7265616479206d696e746564000000006044820152606401610738565b612438600083836001611ca3565b600081815260fd60205260409020546001600160a01b03161561249d5760405162461bcd60e51b815260206004820152601c60248201527f4552433732313a20746f6b656e20616c7265616479206d696e746564000000006044820152606401610738565b6001600160a01b038216600081815260fe602090815260408083208054600101905584835260fd90915280822080546001600160a01b0319168417905551839291907fddf252ad1be2c89b69c2b068fc378daa952ba7f163c4a11628f55a4df523b3ef908290a45050565b61251484848484612732565b61012d5460ff1615610ca55760405162461bcd60e51b815260206004820152602b60248201527f4552433732315061757361626c653a20746f6b656e207472616e73666572207760448201526a1a1a5b19481c185d5cd95960aa1b6064820152608401610738565b60006001612589846110d7565b61259391906133ab565b600083815261019260205260409020549091508082146125e9576001600160a01b038416600090815261019160209081526040808320858452825280832054848452818420819055835261019290915290208190555b506000918252610192602090815260408084208490556001600160a01b03909416835261019181528383209183525290812055565b61019354600090612631906001906133ab565b60008381526101946020526040812054610193805493945090928490811061265b5761265b613029565b9060005260206000200154905080610193838154811061267d5761267d613029565b600091825260208083209091019290925582815261019490915260408082208490558582528120556101938054806126b7576126b76133be565b6001900381819060005260206000200160009055905550505050565b60006126de836110d7565b6001600160a01b0390931660009081526101916020908152604080832086845282528083208590559382526101929052919091209190915550565b606083156127285750816112ff565b6112ff83836127ba565b6001811115610ca5576001600160a01b03841615612778576001600160a01b038416600090815260fe6020526040812080548392906127729084906133ab565b90915550505b6001600160a01b03831615610ca5576001600160a01b038316600090815260fe6020526040812080548392906127af9084906133d4565b909155505050505050565b8151156127ca5781518083602001fd5b8060405162461bcd60e51b81526004016107389190612867565b6001600160e01b03198116811461098257600080fd5b60006020828403121561280c57600080fd5b81356112ff816127e4565b60005b8381101561283257818101518382015260200161281a565b50506000910152565b60008151808452612853816020860160208601612817565b601f01601f19169290920160200192915050565b6020815260006112ff602083018461283b565b60006020828403121561288c57600080fd5b5035919050565b6001600160a01b038116811461098257600080fd5b600080604083850312156128bb57600080fd5b82356128c681612893565b946020939093013593505050565b6000806000606084860312156128e957600080fd5b83356128f481612893565b9250602084013561290481612893565b929592945050506040919091013590565b60006020828403121561292757600080fd5b81356112ff81612893565b6001600160801b038116811461098257600080fd5b60008060006060848603121561295c57600080fd5b833561296781612893565b925060208401359150604084013561297e81612932565b809150509250925092565b634e487b7160e01b600052604160045260246000fd5b60405161010081016001600160401b03811182821017156129c2576129c2612989565b60405290565b604051601f8201601f191681016001600160401b03811182821017156129f0576129f0612989565b604052919050565b60006001600160401b03821115612a1157612a11612989565b50601f01601f191660200190565b600082601f830112612a3057600080fd5b8135612a43612a3e826129f8565b6129c8565b818152846020838601011115612a5857600080fd5b816020850160208301376000918101602001919091529392505050565b60008060408385031215612a8857600080fd5b8235612a9381612893565b915060208301356001600160401b03811115612aae57600080fd5b612aba85828601612a1f565b9150509250929050565b60008060208385031215612ad757600080fd5b82356001600160401b0380821115612aee57600080fd5b818501915085601f830112612b0257600080fd5b813581811115612b1157600080fd5b866020828501011115612b2357600080fd5b60209290920196919550909350505050565b60008060008060808587031215612b4b57600080fd5b8435612b5681612893565b935060208501356001600160401b0380821115612b7257600080fd5b612b7e88838901612a1f565b94506040870135915080821115612b9457600080fd5b612ba088838901612a1f565b93506060870135915080821115612bb657600080fd5b50612bc387828801612a1f565b91505092959194509250565b6020808252825182820181905260009190848201906040850190845b81811015612c0757835183529284019291840191600101612beb565b50909695505050505050565b60008060408385031215612c2657600080fd5b8235612c3181612893565b915060208301358015158114612c4657600080fd5b809150509250929050565b60008060008060808587031215612c6757600080fd5b8435612c7281612893565b93506020850135612c8281612893565b92506040850135915060608501356001600160401b03811115612ca457600080fd5b612bc387828801612a1f565b60008060408385031215612cc357600080fd5b8235612cce81612893565b91506020830135612c4681612893565b600181811c90821680612cf257607f821691505b60208210810361124057634e487b7160e01b600052602260045260246000fd5b6020808252602d908201527f4552433732313a2063616c6c6572206973206e6f7420746f6b656e206f776e6560408201526c1c881bdc88185c1c1c9bdd9959609a1b606082015260800190565b6020808252602c908201527f46756e6374696f6e206d7573742062652063616c6c6564207468726f7567682060408201526b19195b1959d85d1958d85b1b60a21b606082015260800190565b6020808252602c908201527f46756e6374696f6e206d7573742062652063616c6c6564207468726f7567682060408201526b6163746976652070726f787960a01b606082015260800190565b8051612e0281612932565b919050565b80516001600160401b0381168114612e0257600080fd5b600060608284031215612e3057600080fd5b604051606081018181106001600160401b0382111715612e5257612e52612989565b8060405250809150825181526020830151612e6c81612932565b60208201526040830151612e7f81612932565b6040919091015292915050565b600082601f830112612e9d57600080fd5b8151612eab612a3e826129f8565b818152846020838601011115612ec057600080fd5b6114f3826020830160208701612817565b8051612e0281612893565b600060208284031215612eee57600080fd5b81516001600160401b0380821115612f0557600080fd5b908301906101408286031215612f1a57600080fd5b612f2261299f565b82518152612f3260208401612df7565b6020820152612f4360408401612e07565b6040820152612f5460608401612e07565b6060820152612f668660808501612e1e565b608082015260e083015182811115612f7d57600080fd5b612f8987828601612e8c565b60a083015250612f9c6101008401612ed1565b60c0820152612fae6101208401612ed1565b60e082015295945050505050565b634e487b7160e01b600052601160045260246000fd5b6001600160801b03818116838216019080821115612ff257612ff2612fbc565b5092915050565b808202811582820484141761060557610605612fbc565b60006001820161302257613022612fbc565b5060010190565b634e487b7160e01b600052603260045260246000fd5b601f8211156107d957600081815260208120601f850160051c810160208610156130665750805b601f850160051c820191505b8181101561308557828155600101613072565b505050505050565b6001600160401b038311156130a4576130a4612989565b6130b8836130b28354612cde565b8361303f565b6000601f8411600181146130ec57600085156130d45750838201355b600019600387901b1c1916600186901b178355610ca3565b600083815260209020601f19861690835b8281101561311d57868501358255602094850194600190920191016130fd565b508682101561313a5760001960f88860031b161c19848701351681555b505060018560011b0183555050505050565b81516001600160401b0381111561316557613165612989565b613179816131738454612cde565b8461303f565b602080601f8311600181146131ae57600084156131965750858301515b600019600386901b1c1916600185901b178555613085565b600085815260208120601f198616915b828110156131dd578886015182559484019460019091019084016131be565b50858210156131fb5787850151600019600388901b60f8161c191681555b5050505050600190811b01905550565b6000835161321d818460208801612817565b835190830190613231818360208801612817565b01949350505050565b60208082526025908201527f4552433732313a207472616e736665722066726f6d20696e636f72726563742060408201526437bbb732b960d91b606082015260800190565b60006020828403121561329157600080fd5b5051919050565b6020808252602b908201527f496e697469616c697a61626c653a20636f6e7472616374206973206e6f74206960408201526a6e697469616c697a696e6760a81b606082015260800190565b60208082526032908201527f4552433732313a207472616e7366657220746f206e6f6e20455243373231526560408201527131b2b4bb32b91034b6b83632b6b2b73a32b960711b606082015260800190565b6001600160a01b03858116825284166020820152604081018390526080606082018190526000906133689083018461283b565b9695505050505050565b60006020828403121561338457600080fd5b81516112ff816127e4565b600082516133a1818460208701612817565b9190910192915050565b8181038181111561060557610605612fbc565b634e487b7160e01b600052603160045260246000fd5b8082018082111561060557610605612fbc56fe360894a13ba1a3210667c828492db98dca3e2076cc3735a920a3ca505d382bbc416464726573733a206c6f772d6c6576656c2064656c65676174652063616c6c206661696c6564a2646970667358221220e1cb53591ad8110c3af71997d46a1eafd1638ffdbebfa643184e8fbbcd200dcc64736f6c63430008110033",
  "linkReferences": {},
  "deployedLinkReferences": {}
}