{
  "_format": "hh-sol-artifact-1",
  "contractName": "EverNFT",
  "sourceName": "contracts/EverNFT.sol",
  "abi": [
    {
      "inputs": [
        {
          "internalType": "string",
          "name": "externalId",
          "type": "string"
        }
      ],
      "name": "DropConflict",
      "type": "error"
    },
    {
      "inputs": [],
      "name": "DropSoldOut",
      "type": "error"
    },
    {
      "inputs": [],
      "name": "IncorrectAmountSent",
      "type": "error"
    },
    {
      "inputs": [],
      "name": "IncorrectExternalIds",
      "type": "error"
    },
    {
      "inputs": [],
      "name": "InsufficientBalance",
      "type": "error"
    },
    {
      "inputs": [],
      "name": "InvalidAddress",
      "type": "error"
    },
    {
      "inputs": [],
      "name": "InvalidInterface",
      "type": "error"
    },
    {
      "inputs": [],
      "name": "InvalidSupply",
      "type": "error"
    },
    {
      "inputs": [],
      "name": "NotEnoughTokensAvailable",
      "type": "error"
    },
    {
      "inputs": [],
      "name": "NotWhiteListed",
      "type": "error"
    },
    {
      "inputs": [
        {
          "internalType": "string",
          "name": "externalId",
          "type": "string"
        }
      ],
      "name": "PrintConflict",
      "type": "error"
    },
    {
      "inputs": [],
      "name": "SaleEnded",
      "type": "error"
    },
    {
      "inputs": [],
      "name": "SaleNotStarted",
      "type": "error"
    },
    {
      "inputs": [],
      "name": "UnauthorizedUpdate",
      "type": "error"
    },
    {
      "inputs": [],
      "name": "ZeroAddress",
      "type": "error"
    },
    {
      "anonymous": false,
      "inputs": [
        {
          "indexed": false,
          "internalType": "address",
          "name": "previousAdmin",
          "type": "address"
        },
        {
          "indexed": false,
          "internalType": "address",
          "name": "newAdmin",
          "type": "address"
        }
      ],
      "name": "AdminChanged",
      "type": "event"
    },
    {
      "anonymous": false,
      "inputs": [
        {
          "indexed": true,
          "internalType": "address",
          "name": "owner",
          "type": "address"
        },
        {
          "indexed": true,
          "internalType": "address",
          "name": "approved",
          "type": "address"
        },
        {
          "indexed": true,
          "internalType": "uint256",
          "name": "tokenId",
          "type": "uint256"
        }
      ],
      "name": "Approval",
      "type": "event"
    },
    {
      "anonymous": false,
      "inputs": [
        {
          "indexed": true,
          "internalType": "address",
          "name": "owner",
          "type": "address"
        },
        {
          "indexed": true,
          "internalType": "address",
          "name": "operator",
          "type": "address"
        },
        {
          "indexed": false,
          "internalType": "bool",
          "name": "approved",
          "type": "bool"
        }
      ],
      "name": "ApprovalForAll",
      "type": "event"
    },
    {
      "anonymous": false,
      "inputs": [
        {
          "indexed": true,
          "internalType": "address",
          "name": "beacon",
          "type": "address"
        }
      ],
      "name": "BeaconUpgraded",
      "type": "event"
    },
    {
      "anonymous": false,
      "inputs": [
        {
          "indexed": false,
          "internalType": "uint8",
          "name": "version",
          "type": "uint8"
        }
      ],
      "name": "Initialized",
      "type": "event"
    },
    {
      "anonymous": false,
      "inputs": [
        {
          "indexed": true,
          "internalType": "uint256",
          "name": "dropId",
          "type": "uint256"
        },
        {
          "indexed": true,
          "internalType": "uint256",
          "name": "tokenId",
          "type": "uint256"
        },
        {
          "indexed": true,
          "internalType": "string",
          "name": "externalId",
          "type": "string"
        },
        {
          "indexed": false,
          "internalType": "uint128",
          "name": "serialNumber",
          "type": "uint128"
        }
      ],
      "name": "NewPrintMinted",
      "type": "event"
    },
    {
      "anonymous": false,
      "inputs": [
        {
          "indexed": true,
          "internalType": "address",
          "name": "previousOwner",
          "type": "address"
        },
        {
          "indexed": true,
          "internalType": "address",
          "name": "newOwner",
          "type": "address"
        }
      ],
      "name": "OwnershipTransferred",
      "type": "event"
    },
    {
      "anonymous": false,
      "inputs": [
        {
          "indexed": false,
          "internalType": "address",
          "name": "account",
          "type": "address"
        }
      ],
      "name": "Paused",
      "type": "event"
    },
    {
      "anonymous": false,
      "inputs": [
        {
          "indexed": true,
          "internalType": "address",
          "name": "from",
          "type": "address"
        },
        {
          "indexed": true,
          "internalType": "address",
          "name": "to",
          "type": "address"
        },
        {
          "indexed": true,
          "internalType": "uint256",
          "name": "tokenId",
          "type": "uint256"
        }
      ],
      "name": "Transfer",
      "type": "event"
    },
    {
      "anonymous": false,
      "inputs": [
        {
          "indexed": false,
          "internalType": "address",
          "name": "account",
          "type": "address"
        }
      ],
      "name": "Unpaused",
      "type": "event"
    },
    {
      "anonymous": false,
      "inputs": [
        {
          "indexed": true,
          "internalType": "address",
          "name": "implementation",
          "type": "address"
        }
      ],
      "name": "Upgraded",
      "type": "event"
    },
    {
      "inputs": [
        {
          "internalType": "address",
          "name": "to",
          "type": "address"
        },
        {
          "internalType": "uint256",
          "name": "tokenId",
          "type": "uint256"
        }
      ],
      "name": "approve",
      "outputs": [],
      "stateMutability": "nonpayable",
      "type": "function"
    },
    {
      "inputs": [
        {
          "internalType": "address",
          "name": "owner",
          "type": "address"
        }
      ],
      "name": "balanceOf",
      "outputs": [
        {
          "internalType": "uint256",
          "name": "",
          "type": "uint256"
        }
      ],
      "stateMutability": "view",
      "type": "function"
    },
    {
      "inputs": [],
      "name": "baseTokenURI",
      "outputs": [
        {
          "internalType": "string",
          "name": "",
          "type": "string"
        }
      ],
      "stateMutability": "view",
      "type": "function"
    },
    {
      "inputs": [],
      "name": "dropManager",
      "outputs": [
        {
          "internalType": "address",
          "name": "",
          "type": "address"
        }
      ],
      "stateMutability": "view",
      "type": "function"
    },
    {
      "inputs": [],
      "name": "erc20tokenAddress",
      "outputs": [
        {
          "internalType": "address",
          "name": "",
          "type": "address"
        }
      ],
      "stateMutability": "view",
      "type": "function"
    },
    {
      "inputs": [
        {
          "internalType": "string",
          "name": "",
          "type": "string"
        }
      ],
      "name": "externalIdToTokenId",
      "outputs": [
        {
          "internalType": "uint256",
          "name": "",
          "type": "uint256"
        }
      ],
      "stateMutability": "view",
      "type": "function"
    },
    {
      "inputs": [
        {
          "internalType": "uint256",
          "name": "tokenId",
          "type": "uint256"
        }
      ],
      "name": "getApproved",
      "outputs": [
        {
          "internalType": "address",
          "name": "",
          "type": "address"
        }
      ],
      "stateMutability": "view",
      "type": "function"
    },
    {
      "inputs": [
        {
          "internalType": "address",
          "name": "_dropManager",
          "type": "address"
        },
        {
          "internalType": "address",
          "name": "_erc20tokenAddress",
          "type": "address"
        },
        {
          "internalType": "address",
          "name": "_treasury",
          "type": "address"
        },
        {
          "internalType": "string",
          "name": "_baseURI",
          "type": "string"
        },
        {
          "internalType": "string",
          "name": "_name",
          "type": "string"
        },
        {
          "internalType": "string",
          "name": "_symbol",
          "type": "string"
        }
      ],
      "name": "initialize",
      "outputs": [],
      "stateMutability": "nonpayable",
      "type": "function"
    },
    {
      "inputs": [
        {
          "internalType": "address",
          "name": "owner",
          "type": "address"
        },
        {
          "internalType": "address",
          "name": "operator",
          "type": "address"
        }
      ],
      "name": "isApprovedForAll",
      "outputs": [
        {
          "internalType": "bool",
          "name": "",
          "type": "bool"
        }
      ],
      "stateMutability": "view",
      "type": "function"
    },
    {
      "inputs": [
        {
          "internalType": "address",
          "name": "_to",
          "type": "address"
        },
        {
          "internalType": "uint256",
          "name": "_dropId",
          "type": "uint256"
        },
        {
          "internalType": "uint128",
          "name": "_quantity",
          "type": "uint128"
        },
        {
          "internalType": "uint256",
          "name": "_amount",
          "type": "uint256"
        },
        {
          "internalType": "string[]",
          "name": "_externalIds",
          "type": "string[]"
        },
        {
          "internalType": "bytes32[]",
          "name": "_proof",
          "type": "bytes32[]"
        }
      ],
      "name": "mint",
      "outputs": [],
      "stateMutability": "payable",
      "type": "function"
    },
    {
      "inputs": [],
      "name": "name",
      "outputs": [
        {
          "internalType": "string",
          "name": "",
          "type": "string"
        }
      ],
      "stateMutability": "view",
      "type": "function"
    },
    {
      "inputs": [],
      "name": "owner",
      "outputs": [
        {
          "internalType": "address",
          "name": "",
          "type": "address"
        }
      ],
      "stateMutability": "view",
      "type": "function"
    },
    {
      "inputs": [
        {
          "internalType": "uint256",
          "name": "tokenId",
          "type": "uint256"
        }
      ],
      "name": "ownerOf",
      "outputs": [
        {
          "internalType": "address",
          "name": "",
          "type": "address"
        }
      ],
      "stateMutability": "view",
      "type": "function"
    },
    {
      "inputs": [],
      "name": "pause",
      "outputs": [],
      "stateMutability": "nonpayable",
      "type": "function"
    },
    {
      "inputs": [],
      "name": "paused",
      "outputs": [
        {
          "internalType": "bool",
          "name": "",
          "type": "bool"
        }
      ],
      "stateMutability": "view",
      "type": "function"
    },
    {
      "inputs": [],
      "name": "proxiableUUID",
      "outputs": [
        {
          "internalType": "bytes32",
          "name": "",
          "type": "bytes32"
        }
      ],
      "stateMutability": "view",
      "type": "function"
    },
    {
      "inputs": [],
      "name": "renounceOwnership",
      "outputs": [],
      "stateMutability": "nonpayable",
      "type": "function"
    },
    {
      "inputs": [
        {
          "internalType": "address",
          "name": "from",
          "type": "address"
        },
        {
          "internalType": "address",
          "name": "to",
          "type": "address"
        },
        {
          "internalType": "uint256",
          "name": "tokenId",
          "type": "uint256"
        }
      ],
      "name": "safeTransferFrom",
      "outputs": [],
      "stateMutability": "nonpayable",
      "type": "function"
    },
    {
      "inputs": [
        {
          "internalType": "address",
          "name": "from",
          "type": "address"
        },
        {
          "internalType": "address",
          "name": "to",
          "type": "address"
        },
        {
          "internalType": "uint256",
          "name": "tokenId",
          "type": "uint256"
        },
        {
          "internalType": "bytes",
          "name": "data",
          "type": "bytes"
        }
      ],
      "name": "safeTransferFrom",
      "outputs": [],
      "stateMutability": "nonpayable",
      "type": "function"
    },
    {
      "inputs": [
        {
          "internalType": "address",
          "name": "operator",
          "type": "address"
        },
        {
          "internalType": "bool",
          "name": "approved",
          "type": "bool"
        }
      ],
      "name": "setApprovalForAll",
      "outputs": [],
      "stateMutability": "nonpayable",
      "type": "function"
    },
    {
      "inputs": [
        {
          "internalType": "string",
          "name": "_newBaseURI",
          "type": "string"
        }
      ],
      "name": "setBaseURI",
      "outputs": [],
      "stateMutability": "nonpayable",
      "type": "function"
    },
    {
      "inputs": [
        {
          "internalType": "address",
          "name": "_erc20tokenAddress",
          "type": "address"
        }
      ],
      "name": "setERC20TokenAddress",
      "outputs": [],
      "stateMutability": "nonpayable",
      "type": "function"
    },
    {
      "inputs": [
        {
          "internalType": "address",
          "name": "_newTreasury",
          "type": "address"
        }
      ],
      "name": "setTreasury",
      "outputs": [],
      "stateMutability": "nonpayable",
      "type": "function"
    },
    {
      "inputs": [
        {
          "internalType": "bytes4",
          "name": "interfaceId",
          "type": "bytes4"
        }
      ],
      "name": "supportsInterface",
      "outputs": [
        {
          "internalType": "bool",
          "name": "",
          "type": "bool"
        }
      ],
      "stateMutability": "view",
      "type": "function"
    },
    {
      "inputs": [],
      "name": "symbol",
      "outputs": [
        {
          "internalType": "string",
          "name": "",
          "type": "string"
        }
      ],
      "stateMutability": "view",
      "type": "function"
    },
    {
      "inputs": [
        {
          "internalType": "uint256",
          "name": "index",
          "type": "uint256"
        }
      ],
      "name": "tokenByIndex",
      "outputs": [
        {
          "internalType": "uint256",
          "name": "",
          "type": "uint256"
        }
      ],
      "stateMutability": "view",
      "type": "function"
    },
    {
      "inputs": [
        {
          "internalType": "uint256",
          "name": "",
          "type": "uint256"
        }
      ],
      "name": "tokenIdToDropId",
      "outputs": [
        {
          "internalType": "uint256",
          "name": "",
          "type": "uint256"
        }
      ],
      "stateMutability": "view",
      "type": "function"
    },
    {
      "inputs": [
        {
          "internalType": "address",
          "name": "owner",
          "type": "address"
        },
        {
          "internalType": "uint256",
          "name": "index",
          "type": "uint256"
        }
      ],
      "name": "tokenOfOwnerByIndex",
      "outputs": [
        {
          "internalType": "uint256",
          "name": "",
          "type": "uint256"
        }
      ],
      "stateMutability": "view",
      "type": "function"
    },
    {
      "inputs": [
        {
          "internalType": "uint256",
          "name": "tokenId",
          "type": "uint256"
        }
      ],
      "name": "tokenURI",
      "outputs": [
        {
          "internalType": "string",
          "name": "",
          "type": "string"
        }
      ],
      "stateMutability": "view",
      "type": "function"
    },
    {
      "inputs": [
        {
          "internalType": "address",
          "name": "_owner",
          "type": "address"
        }
      ],
      "name": "tokensOfOwner",
      "outputs": [
        {
          "internalType": "uint256[]",
          "name": "",
          "type": "uint256[]"
        }
      ],
      "stateMutability": "view",
      "type": "function"
    },
    {
      "inputs": [],
      "name": "totalSupply",
      "outputs": [
        {
          "internalType": "uint256",
          "name": "",
          "type": "uint256"
        }
      ],
      "stateMutability": "view",
      "type": "function"
    },
    {
      "inputs": [
        {
          "internalType": "address",
          "name": "from",
          "type": "address"
        },
        {
          "internalType": "address",
          "name": "to",
          "type": "address"
        },
        {
          "internalType": "uint256",
          "name": "tokenId",
          "type": "uint256"
        }
      ],
      "name": "transferFrom",
      "outputs": [],
      "stateMutability": "nonpayable",
      "type": "function"
    },
    {
      "inputs": [
        {
          "internalType": "address",
          "name": "newOwner",
          "type": "address"
        }
      ],
      "name": "transferOwnership",
      "outputs": [],
      "stateMutability": "nonpayable",
      "type": "function"
    },
    {
      "inputs": [],
      "name": "treasury",
      "outputs": [
        {
          "internalType": "address",
          "name": "",
          "type": "address"
        }
      ],
      "stateMutability": "view",
      "type": "function"
    },
    {
      "inputs": [],
      "name": "unpause",
      "outputs": [],
      "stateMutability": "nonpayable",
      "type": "function"
    },
    {
      "inputs": [
        {
          "internalType": "address",
          "name": "newImplementation",
          "type": "address"
        }
      ],
      "name": "upgradeTo",
      "outputs": [],
      "stateMutability": "nonpayable",
      "type": "function"
    },
    {
      "inputs": [
        {
          "internalType": "address",
          "name": "newImplementation",
          "type": "address"
        },
        {
          "internalType": "bytes",
          "name": "data",
          "type": "bytes"
        }
      ],
      "name": "upgradeToAndCall",
      "outputs": [],
      "stateMutability": "payable",
      "type": "function"
    }
  ],
  "bytecode": "0x60a06040523060805234801561001457600080fd5b50608051613c3c61004c60003960008181610fca0152818161100a015281816110de0152818161111e01526112460152613c3c6000f3fe60806040526004361061021a5760003560e01c80636352211e11610123578063a22cb465116100ab578063e985e9c51161006f578063e985e9c514610621578063eae483c51461066b578063f0f442601461068b578063f2fde38b146106ab578063f35ea7fc146106cb57600080fd5b8063a22cb4651461058c578063b88d4fde146105ac578063c87b56dd146105cc578063cd28eb80146105ec578063d547cfb71461060c57600080fd5b80638462151c116100f25780638462151c146104dd5780638da5cb5b1461050a5780638f53bc9e1461052857806395d89b411461054957806398244c0c1461055e57600080fd5b80636352211e1461047357806370a0823114610493578063715018a6146104b35780638456cb59146104c857600080fd5b80633f4ba83a116101a657806352d1902d1161017557806352d1902d146103cb57806355f804b3146103e05780635bd96931146104005780635c975abb1461043957806361d027b31461045257600080fd5b80633f4ba83a1461036357806342842e0e146103785780634f1ef286146103985780634f6ccce7146103ab57600080fd5b806318160ddd116101ed57806318160ddd146102d057806323b872dd146102f0578063254741f4146103105780632f745c59146103235780633659cfe61461034357600080fd5b806301ffc9a71461021f57806306fdde0314610254578063081812fc14610276578063095ea7b3146102ae575b600080fd5b34801561022b57600080fd5b5061023f61023a366004612de0565b6106ec565b60405190151581526020015b60405180910390f35b34801561026057600080fd5b506102696106fd565b60405161024b9190612e4d565b34801561028257600080fd5b50610296610291366004612e60565b61078f565b6040516001600160a01b03909116815260200161024b565b3480156102ba57600080fd5b506102ce6102c9366004612e8e565b6107b6565b005b3480156102dc57600080fd5b50610193545b60405190815260200161024b565b3480156102fc57600080fd5b506102ce61030b366004612eba565b6108d0565b6102ce61031e366004612f5b565b610901565b34801561032f57600080fd5b506102e261033e366004612e8e565b610f29565b34801561034f57600080fd5b506102ce61035e366004613002565b610fc0565b34801561036f57600080fd5b506102ce61109f565b34801561038457600080fd5b506102ce610393366004612eba565b6110b9565b6102ce6103a636600461310b565b6110d4565b3480156103b757600080fd5b506102e26103c6366004612e60565b6111a4565b3480156103d757600080fd5b506102e2611239565b3480156103ec57600080fd5b506102ce6103fb36600461315a565b6112ec565b34801561040c57600080fd5b506102e261041b3660046131cb565b80516020818301810180516101fb8252928201919093012091525481565b34801561044557600080fd5b5061012d5460ff1661023f565b34801561045e57600080fd5b506101f854610296906001600160a01b031681565b34801561047f57600080fd5b5061029661048e366004612e60565b611302565b34801561049f57600080fd5b506102e26104ae366004613002565b611362565b3480156104bf57600080fd5b506102ce6113e8565b3480156104d457600080fd5b506102ce6113fa565b3480156104e957600080fd5b506104fd6104f8366004613002565b611412565b60405161024b91906131ff565b34801561051657600080fd5b506097546001600160a01b0316610296565b34801561053457600080fd5b506101f754610296906001600160a01b031681565b34801561055557600080fd5b506102696114d1565b34801561056a57600080fd5b506102e2610579366004612e60565b6101fa6020526000908152604090205481565b34801561059857600080fd5b506102ce6105a7366004613251565b6114e0565b3480156105b857600080fd5b506102ce6105c736600461328a565b6114eb565b3480156105d857600080fd5b506102696105e7366004612e60565b611523565b3480156105f857600080fd5b506102ce6106073660046132f5565b61158a565b34801561061857600080fd5b5061026961173f565b34801561062d57600080fd5b5061023f61063c3660046133b3565b6001600160a01b0391821660009081526101006020908152604080832093909416825291909152205460ff1690565b34801561067757600080fd5b506102ce610686366004613002565b6117ce565b34801561069757600080fd5b506102ce6106a6366004613002565b6117f9565b3480156106b757600080fd5b506102ce6106c6366004613002565b61184b565b3480156106d757600080fd5b506101f954610296906001600160a01b031681565b60006106f7826118c1565b92915050565b606060fb805461070c906133e1565b80601f0160208091040260200160405190810160405280929190818152602001828054610738906133e1565b80156107855780601f1061075a57610100808354040283529160200191610785565b820191906000526020600020905b81548152906001019060200180831161076857829003601f168201915b5050505050905090565b600061079a826118f3565b50600090815260ff60205260409020546001600160a01b031690565b60006107c182611302565b9050806001600160a01b0316836001600160a01b0316036108335760405162461bcd60e51b815260206004820152602160248201527f4552433732313a20617070726f76616c20746f2063757272656e74206f776e656044820152603960f91b60648201526084015b60405180910390fd5b336001600160a01b038216148061084f575061084f813361063c565b6108c15760405162461bcd60e51b815260206004820152603d60248201527f4552433732313a20617070726f76652063616c6c6572206973206e6f7420746f60448201527f6b656e206f776e6572206f7220617070726f76656420666f7220616c6c000000606482015260840161082a565b6108cb8383611952565b505050565b6108da33826119c0565b6108f65760405162461bcd60e51b815260040161082a90613415565b6108cb838383611a40565b610909611bb1565b6101f754604051636787d44960e01b8152600481018990526000916001600160a01b031690636787d44990602401600060405180830381865afa158015610954573d6000803e3d6000fd5b505050506040513d6000823e601f3d908101601f1916820160405261097c9190810190613547565b90508060800151602001516001600160801b031681602001516001600160801b0316036109bc576040516306d6b15160e51b815260040160405180910390fd5b8060800151602001516001600160801b03168782602001516109de919061364a565b6001600160801b03161115610a0657604051632d400a1b60e01b815260040160405180910390fd5b6001600160801b0387168414610a2f576040516304a8374960e41b815260040160405180910390fd5b80604001516001600160401b0316421015610b1657610100810151600003610a6a576040516316851a3760e11b815260040160405180910390fd5b6000610af4848480806020026020016040519081016040528093929190818152602001838360200280828437600092019190915250505050610100840151604080516001600160a01b038f1660208201520160408051601f198184030181528282528051602091820120908301520160405160208183030381529060405280519060200120611bf8565b905080610b1457604051636a9a57a560e01b815260040160405180910390fd5b505b80606001516001600160401b0316421115610b4457604051630bd8a3eb60e01b815260040160405180910390fd5b608081015151610b5e906001600160801b03891690613671565b8614610b7d576040516319a6bd0f60e01b815260040160405180910390fd5b60808101515115610c2e57608081015151610ba2906001600160801b03891690613671565b6101f9546040516370a0823160e01b81523360048201526001600160a01b03909116906370a0823190602401602060405180830381865afa158015610beb573d6000803e3d6000fd5b505050506040513d601f19601f82011682018060405250810190610c0f9190613688565b1015610c2e57604051631e9acf1760e31b815260040160405180910390fd5b60005b876001600160801b0316816001600160801b03161015610e20576101fb8686836001600160801b0316818110610c6957610c696136a1565b9050602002810190610c7b91906136b7565b604051610c899291906136fd565b908152602001604051809103902054600014610ce7578585826001600160801b0316818110610cba57610cba6136a1565b9050602002810190610ccc91906136b7565b6040516303f38da560e01b815260040161082a92919061370d565b610cf66101f580546001019055565b6000610d026101f55490565b835160008281526101fa60205260409020559050610d208b82611c0e565b806101fb8888856001600160801b0316818110610d3f57610d3f6136a1565b9050602002810190610d5191906136b7565b604051610d5f9291906136fd565b9081526040519081900360200190205586866001600160801b038416818110610d8a57610d8a6136a1565b9050602002810190610d9c91906136b7565b604051610daa9291906136fd565b60405180910390208184600001517ff90ad17dca23236f53350d9ab263ce3bae9e8136f2a32e45bdeca4c490e1fb69858760200151610de9919061364a565b610df490600161364a565b6040516001600160801b03909116815260200160405180910390a450610e198161373c565b9050610c31565b506101f7548151604051635d3aeb3760e11b815260048101919091526001600160801b03891660248201526001600160a01b039091169063ba75d66e90604401600060405180830381600087803b158015610e7a57600080fd5b505af1158015610e8e573d6000803e3d6000fd5b505050506000861115610f1e576101f9546101f8546040516323b872dd60e01b81523360048201526001600160a01b039182166024820152604481018990529116906323b872dd906064016020604051808303816000875af1158015610ef8573d6000803e3d6000fd5b505050506040513d601f19601f82011682018060405250810190610f1c9190613762565b505b505050505050505050565b6000610f3483611362565b8210610f965760405162461bcd60e51b815260206004820152602b60248201527f455243373231456e756d657261626c653a206f776e657220696e646578206f7560448201526a74206f6620626f756e647360a81b606482015260840161082a565b506001600160a01b0391909116600090815261019160209081526040808320938352929052205490565b6001600160a01b037f00000000000000000000000000000000000000000000000000000000000000001630036110085760405162461bcd60e51b815260040161082a9061377f565b7f00000000000000000000000000000000000000000000000000000000000000006001600160a01b0316611051600080516020613bc0833981519152546001600160a01b031690565b6001600160a01b0316146110775760405162461bcd60e51b815260040161082a906137cb565b61108081611c28565b6040805160008082526020820190925261109c91839190611c30565b50565b6110a7611d9b565b6110af611df5565b6110b7611e3f565b565b6108cb838383604051806020016040528060008152506114eb565b6001600160a01b037f000000000000000000000000000000000000000000000000000000000000000016300361111c5760405162461bcd60e51b815260040161082a9061377f565b7f00000000000000000000000000000000000000000000000000000000000000006001600160a01b0316611165600080516020613bc0833981519152546001600160a01b031690565b6001600160a01b03161461118b5760405162461bcd60e51b815260040161082a906137cb565b61119482611c28565b6111a082826001611c30565b5050565b60006111b06101935490565b82106112135760405162461bcd60e51b815260206004820152602c60248201527f455243373231456e756d657261626c653a20676c6f62616c20696e646578206f60448201526b7574206f6620626f756e647360a01b606482015260840161082a565b6101938281548110611227576112276136a1565b90600052602060002001549050919050565b6000306001600160a01b037f000000000000000000000000000000000000000000000000000000000000000016146112d95760405162461bcd60e51b815260206004820152603860248201527f555550535570677261646561626c653a206d757374206e6f742062652063616c60448201527f6c6564207468726f7567682064656c656761746563616c6c0000000000000000606482015260840161082a565b50600080516020613bc083398151915290565b6112f4611d9b565b6101f66108cb828483613865565b600081815260fd60205260408120546001600160a01b0316806106f75760405162461bcd60e51b8152602060048201526018602482015277115490cdcc8c4e881a5b9d985b1a59081d1bdad95b88125160421b604482015260640161082a565b60006001600160a01b0382166113cc5760405162461bcd60e51b815260206004820152602960248201527f4552433732313a2061646472657373207a65726f206973206e6f7420612076616044820152683634b21037bbb732b960b91b606482015260840161082a565b506001600160a01b0316600090815260fe602052604090205490565b6113f0611d9b565b6110b76000611e92565b611402611d9b565b61140a611bb1565b6110b7611ee4565b6060600061141f83611362565b9050806000036114435760408051600080825260208201909252905b509392505050565b6000816001600160401b0381111561145d5761145d61301f565b604051908082528060200260200182016040528015611486578160200160208202803683370190505b50905060005b8281101561143b5761149e8582610f29565b8282815181106114b0576114b06136a1565b60209081029190910101526114c481613924565b905061148c565b50919050565b606060fc805461070c906133e1565b6111a0338383611f22565b6114f533836119c0565b6115115760405162461bcd60e51b815260040161082a90613415565b61151d84848484611ff1565b50505050565b606061152e826118f3565b6000611538612024565b905060008151116115585760405180602001604052806000815250611583565b8061156284612034565b60405160200161157392919061393d565b6040516020818303038152906040525b9392505050565b600054610100900460ff16158080156115aa5750600054600160ff909116105b806115c45750303b1580156115c4575060005460ff166001145b6116275760405162461bcd60e51b815260206004820152602e60248201527f496e697469616c697a61626c653a20636f6e747261637420697320616c72656160448201526d191e481a5b9a5d1a585b1a5e995960921b606482015260840161082a565b6000805460ff19166001179055801561164a576000805461ff0019166101001790555b6116526120c6565b61165c83836120ed565b61166461211e565b611675876394454e4d60e01b61214d565b611692576040516382542ee160e01b815260040160405180910390fd5b6101f661169f858261396c565b506101f780546001600160a01b03808a166001600160a01b0319928316179092556101f980548984169083161790556101f88054928816929091169190911790556116f06309f8066760e31b612169565b8015611736576000805461ff0019169055604051600181527f7f26b83ff96e1f2b6a682f133852f6798a09c465da95921460cefb38474024989060200160405180910390a15b50505050505050565b6101f6805461174d906133e1565b80601f0160208091040260200160405190810160405280929190818152602001828054611779906133e1565b80156117c65780601f1061179b576101008083540402835291602001916117c6565b820191906000526020600020905b8154815290600101906020018083116117a957829003601f168201915b505050505081565b6117d6611d9b565b6101f980546001600160a01b0319166001600160a01b0392909216919091179055565b611801611d9b565b6001600160a01b0381166118285760405163e6c4247b60e01b815260040160405180910390fd5b6101f880546001600160a01b0319166001600160a01b0392909216919091179055565b611853611d9b565b6001600160a01b0381166118b85760405162461bcd60e51b815260206004820152602660248201527f4f776e61626c653a206e6577206f776e657220697320746865207a65726f206160448201526564647265737360d01b606482015260840161082a565b61109c81611e92565b60006118cc826121e9565b806106f75750506001600160e01b03191660009081526101c3602052604090205460ff1690565b600081815260fd60205260409020546001600160a01b031661109c5760405162461bcd60e51b8152602060048201526018602482015277115490cdcc8c4e881a5b9d985b1a59081d1bdad95b88125160421b604482015260640161082a565b600081815260ff6020526040902080546001600160a01b0319166001600160a01b038416908117909155819061198782611302565b6001600160a01b03167f8c5be1e5ebec7d5bd14f71427d1e84f3dd0314c0f7b2291e5b200ac8c7c3b92560405160405180910390a45050565b6000806119cc83611302565b9050806001600160a01b0316846001600160a01b03161480611a1457506001600160a01b038082166000908152610100602090815260408083209388168352929052205460ff165b80611a385750836001600160a01b0316611a2d8461078f565b6001600160a01b0316145b949350505050565b826001600160a01b0316611a5382611302565b6001600160a01b031614611a795760405162461bcd60e51b815260040161082a90613a2b565b6001600160a01b038216611adb5760405162461bcd60e51b8152602060048201526024808201527f4552433732313a207472616e7366657220746f20746865207a65726f206164646044820152637265737360e01b606482015260840161082a565b611ae8838383600161220e565b826001600160a01b0316611afb82611302565b6001600160a01b031614611b215760405162461bcd60e51b815260040161082a90613a2b565b600081815260ff6020908152604080832080546001600160a01b03199081169091556001600160a01b0387811680865260fe855283862080546000190190559087168086528386208054600101905586865260fd90945282852080549092168417909155905184937fddf252ad1be2c89b69c2b068fc378daa952ba7f163c4a11628f55a4df523b3ef91a4505050565b61012d5460ff16156110b75760405162461bcd60e51b815260206004820152601060248201526f14185d5cd8589b194e881c185d5cd95960821b604482015260640161082a565b600082611c058584612222565b14949350505050565b6111a0828260405180602001604052806000815250612267565b61109c611d9b565b7f4910fdfa16fed3260ed0e7147f7cc6da11a60208b5b9406d12a635614ffd91435460ff1615611c63576108cb8361229a565b826001600160a01b03166352d1902d6040518163ffffffff1660e01b8152600401602060405180830381865afa925050508015611cbd575060408051601f3d908101601f19168201909252611cba91810190613688565b60015b611d205760405162461bcd60e51b815260206004820152602e60248201527f45524331393637557067726164653a206e657720696d706c656d656e7461746960448201526d6f6e206973206e6f74205555505360901b606482015260840161082a565b600080516020613bc08339815191528114611d8f5760405162461bcd60e51b815260206004820152602960248201527f45524331393637557067726164653a20756e737570706f727465642070726f786044820152681a58589b195555525160ba1b606482015260840161082a565b506108cb838383612336565b6097546001600160a01b031633146110b75760405162461bcd60e51b815260206004820181905260248201527f4f776e61626c653a2063616c6c6572206973206e6f7420746865206f776e6572604482015260640161082a565b61012d5460ff166110b75760405162461bcd60e51b815260206004820152601460248201527314185d5cd8589b194e881b9bdd081c185d5cd95960621b604482015260640161082a565b611e47611df5565b61012d805460ff191690557f5db9ee0a495bf2e6ff9c91a7834c1ba4fdd244a5e8aa4e537bd38aeae4b073aa335b6040516001600160a01b03909116815260200160405180910390a1565b609780546001600160a01b038381166001600160a01b0319831681179093556040519116919082907f8be0079c531659141344cd1fd0a4f28419497f9722a3daafe3b4186f6b6457e090600090a35050565b611eec611bb1565b61012d805460ff191660011790557f62e78cea01bee320cd4e420270b5ea74000d11b0c9f74754ebdbfc544b05a258611e753390565b816001600160a01b0316836001600160a01b031603611f835760405162461bcd60e51b815260206004820152601960248201527f4552433732313a20617070726f766520746f2063616c6c657200000000000000604482015260640161082a565b6001600160a01b0383811660008181526101006020908152604080832094871680845294825291829020805460ff191686151590811790915591519182527f17307eab39ab6107e8899845ad3d59bd9653f200f220920489ca2b5937696c31910160405180910390a3505050565b611ffc848484611a40565b6120088484848461235b565b61151d5760405162461bcd60e51b815260040161082a90613a70565b60606101f6805461070c906133e1565b606060006120418361245c565b60010190506000816001600160401b038111156120605761206061301f565b6040519080825280601f01601f19166020018201604052801561208a576020820181803683370190505b5090508181016020015b600019016f181899199a1a9b1b9c1cb0b131b232b360811b600a86061a8153600a850494508461209457509392505050565b600054610100900460ff166110b75760405162461bcd60e51b815260040161082a90613ac2565b600054610100900460ff166121145760405162461bcd60e51b815260040161082a90613ac2565b6111a08282612534565b600054610100900460ff166121455760405162461bcd60e51b815260040161082a90613ac2565b6110b7612574565b6000612158836125a4565b8015611583575061158383836125d7565b6001600160e01b031980821690036121c35760405162461bcd60e51b815260206004820152601c60248201527f4552433136353a20696e76616c696420696e7465726661636520696400000000604482015260640161082a565b6001600160e01b03191660009081526101c360205260409020805460ff19166001179055565b60006001600160e01b0319821663780e9d6360e01b14806106f757506106f782612660565b612216611bb1565b61151d848484846126b0565b600081815b845181101561143b5761225382868381518110612246576122466136a1565b60200260200101516127f2565b91508061225f81613924565b915050612227565b6122718383612821565b61227e600084848461235b565b6108cb5760405162461bcd60e51b815260040161082a90613a70565b6001600160a01b0381163b6123075760405162461bcd60e51b815260206004820152602d60248201527f455243313936373a206e657720696d706c656d656e746174696f6e206973206e60448201526c1bdd08184818dbdb9d1c9858dd609a1b606482015260840161082a565b600080516020613bc083398151915280546001600160a01b0319166001600160a01b0392909216919091179055565b61233f836129ba565b60008251118061234c5750805b156108cb5761151d83836129fa565b60006001600160a01b0384163b1561245157604051630a85bd0160e11b81526001600160a01b0385169063150b7a029061239f903390899088908890600401613b0d565b6020604051808303816000875af19250505080156123da575060408051601f3d908101601f191682019092526123d791810190613b4a565b60015b612437573d808015612408576040519150601f19603f3d011682016040523d82523d6000602084013e61240d565b606091505b50805160000361242f5760405162461bcd60e51b815260040161082a90613a70565b805181602001fd5b6001600160e01b031916630a85bd0160e11b149050611a38565b506001949350505050565b60008072184f03e93ff9f4daa797ed6e38ed64bf6a1f0160401b831061249b5772184f03e93ff9f4daa797ed6e38ed64bf6a1f0160401b830492506040015b6d04ee2d6d415b85acef810000000083106124c7576d04ee2d6d415b85acef8100000000830492506020015b662386f26fc1000083106124e557662386f26fc10000830492506010015b6305f5e10083106124fd576305f5e100830492506008015b612710831061251157612710830492506004015b60648310612523576064830492506002015b600a83106106f75760010192915050565b600054610100900460ff1661255b5760405162461bcd60e51b815260040161082a90613ac2565b60fb612567838261396c565b5060fc6108cb828261396c565b600054610100900460ff1661259b5760405162461bcd60e51b815260040161082a90613ac2565b6110b733611e92565b60006125b7826301ffc9a760e01b6125d7565b80156106f757506125d0826001600160e01b03196125d7565b1592915050565b604080516001600160e01b03198316602480830191909152825180830390910181526044909101909152602080820180516001600160e01b03166301ffc9a760e01b178152825160009392849283928392918391908a617530fa92503d91506000519050828015612649575060208210155b80156126555750600081115b979650505050505050565b60006001600160e01b031982166380ac58cd60e01b148061269157506001600160e01b03198216635b5e139f60e01b145b806106f757506301ffc9a760e01b6001600160e01b03198316146106f7565b6126bc84848484612aee565b600181111561272b5760405162461bcd60e51b815260206004820152603560248201527f455243373231456e756d657261626c653a20636f6e7365637574697665207472604482015274185b9cd9995c9cc81b9bdd081cdd5c1c1bdc9d1959605a1b606482015260840161082a565b816001600160a01b03851661278957612784816101938054600083815261019460205260408120829055600182018355919091527ffc8af01f449989052b52093a58fc9f42d0b11f0c6dd5dca0463dab62346ccc680155565b6127ac565b836001600160a01b0316856001600160a01b0316146127ac576127ac8582612b62565b6001600160a01b0384166127c8576127c381612c04565b6127eb565b846001600160a01b0316846001600160a01b0316146127eb576127eb8482612cb9565b5050505050565b600081831061280e576000828152602084905260409020611583565b6000838152602083905260409020611583565b6001600160a01b0382166128775760405162461bcd60e51b815260206004820181905260248201527f4552433732313a206d696e7420746f20746865207a65726f2061646472657373604482015260640161082a565b600081815260fd60205260409020546001600160a01b0316156128dc5760405162461bcd60e51b815260206004820152601c60248201527f4552433732313a20746f6b656e20616c7265616479206d696e74656400000000604482015260640161082a565b6128ea60008383600161220e565b600081815260fd60205260409020546001600160a01b03161561294f5760405162461bcd60e51b815260206004820152601c60248201527f4552433732313a20746f6b656e20616c7265616479206d696e74656400000000604482015260640161082a565b6001600160a01b038216600081815260fe602090815260408083208054600101905584835260fd90915280822080546001600160a01b0319168417905551839291907fddf252ad1be2c89b69c2b068fc378daa952ba7f163c4a11628f55a4df523b3ef908290a45050565b6129c38161229a565b6040516001600160a01b038216907fbc7cd75a20ee27fd9adebab32041f755214dbc6bffa90cc0225b39da2e5c2d3b90600090a250565b60606001600160a01b0383163b612a625760405162461bcd60e51b815260206004820152602660248201527f416464726573733a2064656c65676174652063616c6c20746f206e6f6e2d636f6044820152651b9d1c9858dd60d21b606482015260840161082a565b600080846001600160a01b031684604051612a7d9190613b67565b600060405180830381855af49150503d8060008114612ab8576040519150601f19603f3d011682016040523d82523d6000602084013e612abd565b606091505b5091509150612ae58282604051806060016040528060278152602001613be060279139612cff565b95945050505050565b612afa84848484612d18565b61012d5460ff161561151d5760405162461bcd60e51b815260206004820152602b60248201527f4552433732315061757361626c653a20746f6b656e207472616e73666572207760448201526a1a1a5b19481c185d5cd95960aa1b606482015260840161082a565b60006001612b6f84611362565b612b799190613b83565b60008381526101926020526040902054909150808214612bcf576001600160a01b038416600090815261019160209081526040808320858452825280832054848452818420819055835261019290915290208190555b506000918252610192602090815260408084208490556001600160a01b03909416835261019181528383209183525290812055565b61019354600090612c1790600190613b83565b600083815261019460205260408120546101938054939450909284908110612c4157612c416136a1565b90600052602060002001549050806101938381548110612c6357612c636136a1565b60009182526020808320909101929092558281526101949091526040808220849055858252812055610193805480612c9d57612c9d613b96565b6001900381819060005260206000200160009055905550505050565b6000612cc483611362565b6001600160a01b0390931660009081526101916020908152604080832086845282528083208590559382526101929052919091209190915550565b60608315612d0e575081611583565b6115838383612da0565b600181111561151d576001600160a01b03841615612d5e576001600160a01b038416600090815260fe602052604081208054839290612d58908490613b83565b90915550505b6001600160a01b0383161561151d576001600160a01b038316600090815260fe602052604081208054839290612d95908490613bac565b909155505050505050565b815115612db05781518083602001fd5b8060405162461bcd60e51b815260040161082a9190612e4d565b6001600160e01b03198116811461109c57600080fd5b600060208284031215612df257600080fd5b813561158381612dca565b60005b83811015612e18578181015183820152602001612e00565b50506000910152565b60008151808452612e39816020860160208601612dfd565b601f01601f19169290920160200192915050565b6020815260006115836020830184612e21565b600060208284031215612e7257600080fd5b5035919050565b6001600160a01b038116811461109c57600080fd5b60008060408385031215612ea157600080fd5b8235612eac81612e79565b946020939093013593505050565b600080600060608486031215612ecf57600080fd5b8335612eda81612e79565b92506020840135612eea81612e79565b929592945050506040919091013590565b6001600160801b038116811461109c57600080fd5b60008083601f840112612f2257600080fd5b5081356001600160401b03811115612f3957600080fd5b6020830191508360208260051b8501011115612f5457600080fd5b9250929050565b60008060008060008060008060c0898b031215612f7757600080fd5b8835612f8281612e79565b9750602089013596506040890135612f9981612efb565b95506060890135945060808901356001600160401b0380821115612fbc57600080fd5b612fc88c838d01612f10565b909650945060a08b0135915080821115612fe157600080fd5b50612fee8b828c01612f10565b999c989b5096995094979396929594505050565b60006020828403121561301457600080fd5b813561158381612e79565b634e487b7160e01b600052604160045260246000fd5b60405161012081016001600160401b03811182821017156130585761305861301f565b60405290565b604051601f8201601f191681016001600160401b03811182821017156130865761308661301f565b604052919050565b60006001600160401b038211156130a7576130a761301f565b50601f01601f191660200190565b600082601f8301126130c657600080fd5b81356130d96130d48261308e565b61305e565b8181528460208386010111156130ee57600080fd5b816020850160208301376000918101602001919091529392505050565b6000806040838503121561311e57600080fd5b823561312981612e79565b915060208301356001600160401b0381111561314457600080fd5b613150858286016130b5565b9150509250929050565b6000806020838503121561316d57600080fd5b82356001600160401b038082111561318457600080fd5b818501915085601f83011261319857600080fd5b8135818111156131a757600080fd5b8660208285010111156131b957600080fd5b60209290920196919550909350505050565b6000602082840312156131dd57600080fd5b81356001600160401b038111156131f357600080fd5b611a38848285016130b5565b6020808252825182820181905260009190848201906040850190845b818110156132375783518352928401929184019160010161321b565b50909695505050505050565b801515811461109c57600080fd5b6000806040838503121561326457600080fd5b823561326f81612e79565b9150602083013561327f81613243565b809150509250929050565b600080600080608085870312156132a057600080fd5b84356132ab81612e79565b935060208501356132bb81612e79565b92506040850135915060608501356001600160401b038111156132dd57600080fd5b6132e9878288016130b5565b91505092959194509250565b60008060008060008060c0878903121561330e57600080fd5b863561331981612e79565b9550602087013561332981612e79565b9450604087013561333981612e79565b935060608701356001600160401b038082111561335557600080fd5b6133618a838b016130b5565b9450608089013591508082111561337757600080fd5b6133838a838b016130b5565b935060a089013591508082111561339957600080fd5b506133a689828a016130b5565b9150509295509295509295565b600080604083850312156133c657600080fd5b82356133d181612e79565b9150602083013561327f81612e79565b600181811c908216806133f557607f821691505b6020821081036114cb57634e487b7160e01b600052602260045260246000fd5b6020808252602d908201527f4552433732313a2063616c6c6572206973206e6f7420746f6b656e206f776e6560408201526c1c881bdc88185c1c1c9bdd9959609a1b606082015260800190565b805161346d81612efb565b919050565b80516001600160401b038116811461346d57600080fd5b60006060828403121561349b57600080fd5b604051606081018181106001600160401b03821117156134bd576134bd61301f565b80604052508091508251815260208301516134d781612efb565b602082015260408301516134ea81612efb565b6040919091015292915050565b600082601f83011261350857600080fd5b81516135166130d48261308e565b81815284602083860101111561352b57600080fd5b611a38826020830160208701612dfd565b805161346d81612e79565b60006020828403121561355957600080fd5b81516001600160401b038082111561357057600080fd5b90830190610160828603121561358557600080fd5b61358d613035565b8251815261359d60208401613462565b60208201526135ae60408401613472565b60408201526135bf60608401613472565b60608201526135d18660808501613489565b608082015260e0830151828111156135e857600080fd5b6135f4878286016134f7565b60a083015250610100915061360a82840161353c565b60c082015261361c610120840161353c565b60e08201526101409290920151908201529392505050565b634e487b7160e01b600052601160045260246000fd5b6001600160801b0381811683821601908082111561366a5761366a613634565b5092915050565b80820281158282048414176106f7576106f7613634565b60006020828403121561369a57600080fd5b5051919050565b634e487b7160e01b600052603260045260246000fd5b6000808335601e198436030181126136ce57600080fd5b8301803591506001600160401b038211156136e857600080fd5b602001915036819003821315612f5457600080fd5b8183823760009101908152919050565b60208152816020820152818360408301376000818301604090810191909152601f909201601f19160101919050565b60006001600160801b0380831681810361375857613758613634565b6001019392505050565b60006020828403121561377457600080fd5b815161158381613243565b6020808252602c908201527f46756e6374696f6e206d7573742062652063616c6c6564207468726f7567682060408201526b19195b1959d85d1958d85b1b60a21b606082015260800190565b6020808252602c908201527f46756e6374696f6e206d7573742062652063616c6c6564207468726f7567682060408201526b6163746976652070726f787960a01b606082015260800190565b601f8211156108cb57600081815260208120601f850160051c8101602086101561383e5750805b601f850160051c820191505b8181101561385d5782815560010161384a565b505050505050565b6001600160401b0383111561387c5761387c61301f565b6138908361388a83546133e1565b83613817565b6000601f8411600181146138c457600085156138ac5750838201355b600019600387901b1c1916600186901b1783556127eb565b600083815260209020601f19861690835b828110156138f557868501358255602094850194600190920191016138d5565b50868210156139125760001960f88860031b161c19848701351681555b505060018560011b0183555050505050565b60006001820161393657613936613634565b5060010190565b6000835161394f818460208801612dfd565b835190830190613963818360208801612dfd565b01949350505050565b81516001600160401b038111156139855761398561301f565b6139998161399384546133e1565b84613817565b602080601f8311600181146139ce57600084156139b65750858301515b600019600386901b1c1916600185901b17855561385d565b600085815260208120601f198616915b828110156139fd578886015182559484019460019091019084016139de565b5085821015613a1b5787850151600019600388901b60f8161c191681555b5050505050600190811b01905550565b60208082526025908201527f4552433732313a207472616e736665722066726f6d20696e636f72726563742060408201526437bbb732b960d91b606082015260800190565b60208082526032908201527f4552433732313a207472616e7366657220746f206e6f6e20455243373231526560408201527131b2b4bb32b91034b6b83632b6b2b73a32b960711b606082015260800190565b6020808252602b908201527f496e697469616c697a61626c653a20636f6e7472616374206973206e6f74206960408201526a6e697469616c697a696e6760a81b606082015260800190565b6001600160a01b0385811682528416602082015260408101839052608060608201819052600090613b4090830184612e21565b9695505050505050565b600060208284031215613b5c57600080fd5b815161158381612dca565b60008251613b79818460208701612dfd565b9190910192915050565b818103818111156106f7576106f7613634565b634e487b7160e01b600052603160045260246000fd5b808201808211156106f7576106f761363456fe360894a13ba1a3210667c828492db98dca3e2076cc3735a920a3ca505d382bbc416464726573733a206c6f772d6c6576656c2064656c65676174652063616c6c206661696c6564a26469706673582212207b753afd811db19cca4efb424b167dd0ccdb1fc15466f204d02ef823409edfdb64736f6c63430008110033",
  "linkReferences": {},
  "deployedLinkReferences": {}
}