{
  "_format": "hh-sol-artifact-1",
  "contractName": "EverDropManager",
  "sourceName": "contracts/EverDropManager.sol",
  "abi": [
    {
      "inputs": [],
      "name": "DropAlreadyExists",
      "type": "error"
    },
    {
      "inputs": [],
      "name": "DropSoldOut",
      "type": "error"
    },
    {
      "inputs": [],
      "name": "IncorrectAmountSent",
      "type": "error"
    },
    {
      "inputs": [],
      "name": "InvalidInterface",
      "type": "error"
    },
    {
      "inputs": [],
      "name": "NotEnoughTokensAvailable",
      "type": "error"
    },
    {
      "inputs": [],
      "name": "SaleEnded",
      "type": "error"
    },
    {
      "inputs": [],
      "name": "SaleNotStarted",
      "type": "error"
    },
    {
      "inputs": [],
      "name": "UnauthorizedUpdate",
      "type": "error"
    },
    {
      "anonymous": false,
      "inputs": [
        {
          "indexed": false,
          "internalType": "address",
          "name": "previousAdmin",
          "type": "address"
        },
        {
          "indexed": false,
          "internalType": "address",
          "name": "newAdmin",
          "type": "address"
        }
      ],
      "name": "AdminChanged",
      "type": "event"
    },
    {
      "anonymous": false,
      "inputs": [
        {
          "indexed": true,
          "internalType": "address",
          "name": "beacon",
          "type": "address"
        }
      ],
      "name": "BeaconUpgraded",
      "type": "event"
    },
    {
      "anonymous": false,
      "inputs": [
        {
          "indexed": false,
          "internalType": "uint256",
          "name": "dropId",
          "type": "uint256"
        },
        {
          "indexed": false,
          "internalType": "address",
          "name": "owner",
          "type": "address"
        }
      ],
      "name": "DropRightHolderUpdated",
      "type": "event"
    },
    {
      "anonymous": false,
      "inputs": [
        {
          "indexed": false,
          "internalType": "uint256",
          "name": "dropId",
          "type": "uint256"
        },
        {
          "indexed": false,
          "internalType": "uint64",
          "name": "saleOpenTime",
          "type": "uint64"
        },
        {
          "indexed": false,
          "internalType": "uint64",
          "name": "saleCloseTime",
          "type": "uint64"
        }
      ],
      "name": "DropSaleInfoUpdated",
      "type": "event"
    },
    {
      "anonymous": false,
      "inputs": [
        {
          "indexed": false,
          "internalType": "uint256",
          "name": "dropId",
          "type": "uint256"
        },
        {
          "indexed": false,
          "internalType": "uint128",
          "name": "supply",
          "type": "uint128"
        }
      ],
      "name": "DropSupplyUpdated",
      "type": "event"
    },
    {
      "anonymous": false,
      "inputs": [
        {
          "indexed": false,
          "internalType": "uint8",
          "name": "version",
          "type": "uint8"
        }
      ],
      "name": "Initialized",
      "type": "event"
    },
    {
      "anonymous": false,
      "inputs": [
        {
          "indexed": false,
          "internalType": "uint256",
          "name": "dropId",
          "type": "uint256"
        },
        {
          "indexed": false,
          "internalType": "string",
          "name": "externalId",
          "type": "string"
        },
        {
          "indexed": false,
          "internalType": "address",
          "name": "nftContractAddress",
          "type": "address"
        }
      ],
      "name": "NewDrop",
      "type": "event"
    },
    {
      "anonymous": false,
      "inputs": [
        {
          "indexed": true,
          "internalType": "bytes32",
          "name": "role",
          "type": "bytes32"
        },
        {
          "indexed": true,
          "internalType": "bytes32",
          "name": "previousAdminRole",
          "type": "bytes32"
        },
        {
          "indexed": true,
          "internalType": "bytes32",
          "name": "newAdminRole",
          "type": "bytes32"
        }
      ],
      "name": "RoleAdminChanged",
      "type": "event"
    },
    {
      "anonymous": false,
      "inputs": [
        {
          "indexed": true,
          "internalType": "bytes32",
          "name": "role",
          "type": "bytes32"
        },
        {
          "indexed": true,
          "internalType": "address",
          "name": "account",
          "type": "address"
        },
        {
          "indexed": true,
          "internalType": "address",
          "name": "sender",
          "type": "address"
        }
      ],
      "name": "RoleGranted",
      "type": "event"
    },
    {
      "anonymous": false,
      "inputs": [
        {
          "indexed": true,
          "internalType": "bytes32",
          "name": "role",
          "type": "bytes32"
        },
        {
          "indexed": true,
          "internalType": "address",
          "name": "account",
          "type": "address"
        },
        {
          "indexed": true,
          "internalType": "address",
          "name": "sender",
          "type": "address"
        }
      ],
      "name": "RoleRevoked",
      "type": "event"
    },
    {
      "anonymous": false,
      "inputs": [
        {
          "indexed": true,
          "internalType": "address",
          "name": "implementation",
          "type": "address"
        }
      ],
      "name": "Upgraded",
      "type": "event"
    },
    {
      "inputs": [],
      "name": "CREATOR_ROLE",
      "outputs": [
        {
          "internalType": "bytes32",
          "name": "",
          "type": "bytes32"
        }
      ],
      "stateMutability": "view",
      "type": "function"
    },
    {
      "inputs": [],
      "name": "DEFAULT_ADMIN_ROLE",
      "outputs": [
        {
          "internalType": "bytes32",
          "name": "",
          "type": "bytes32"
        }
      ],
      "stateMutability": "view",
      "type": "function"
    },
    {
      "inputs": [],
      "name": "SUB_ADMIN_ROLE",
      "outputs": [
        {
          "internalType": "bytes32",
          "name": "",
          "type": "bytes32"
        }
      ],
      "stateMutability": "view",
      "type": "function"
    },
    {
      "inputs": [
        {
          "internalType": "address",
          "name": "_creator",
          "type": "address"
        }
      ],
      "name": "addCreator",
      "outputs": [],
      "stateMutability": "nonpayable",
      "type": "function"
    },
    {
      "inputs": [
        {
          "internalType": "address",
          "name": "_creator",
          "type": "address"
        }
      ],
      "name": "addSubAdmin",
      "outputs": [],
      "stateMutability": "nonpayable",
      "type": "function"
    },
    {
      "inputs": [
        {
          "internalType": "address",
          "name": "_owner",
          "type": "address"
        },
        {
          "internalType": "address",
          "name": "_nft",
          "type": "address"
        },
        {
          "internalType": "uint256",
          "name": "_price",
          "type": "uint256"
        },
        {
          "internalType": "uint128",
          "name": "_supply",
          "type": "uint128"
        },
        {
          "internalType": "uint128",
          "name": "_royaltySharePerToken",
          "type": "uint128"
        },
        {
          "internalType": "string",
          "name": "_externalId",
          "type": "string"
        },
        {
          "internalType": "uint64",
          "name": "_saleOpenTime",
          "type": "uint64"
        },
        {
          "internalType": "uint64",
          "name": "_saleCloseTime",
          "type": "uint64"
        }
      ],
      "name": "create",
      "outputs": [],
      "stateMutability": "nonpayable",
      "type": "function"
    },
    {
      "inputs": [
        {
          "internalType": "uint256",
          "name": "",
          "type": "uint256"
        }
      ],
      "name": "drops",
      "outputs": [
        {
          "internalType": "uint256",
          "name": "dropId",
          "type": "uint256"
        },
        {
          "internalType": "uint128",
          "name": "sold",
          "type": "uint128"
        },
        {
          "internalType": "uint64",
          "name": "saleOpenTime",
          "type": "uint64"
        },
        {
          "internalType": "uint64",
          "name": "saleCloseTime",
          "type": "uint64"
        },
        {
          "components": [
            {
              "internalType": "uint256",
              "name": "price",
              "type": "uint256"
            },
            {
              "internalType": "uint128",
              "name": "supply",
              "type": "uint128"
            },
            {
              "internalType": "uint128",
              "name": "royaltySharePerToken",
              "type": "uint128"
            }
          ],
          "internalType": "struct EverDropManager.TokenInfo",
          "name": "tokenInfo",
          "type": "tuple"
        },
        {
          "internalType": "string",
          "name": "externalId",
          "type": "string"
        },
        {
          "internalType": "address",
          "name": "owner",
          "type": "address"
        },
        {
          "internalType": "address",
          "name": "nft",
          "type": "address"
        }
      ],
      "stateMutability": "view",
      "type": "function"
    },
    {
      "inputs": [
        {
          "internalType": "string",
          "name": "",
          "type": "string"
        }
      ],
      "name": "externalIdToDropId",
      "outputs": [
        {
          "internalType": "uint256",
          "name": "",
          "type": "uint256"
        }
      ],
      "stateMutability": "view",
      "type": "function"
    },
    {
      "inputs": [
        {
          "internalType": "uint256",
          "name": "_dropId",
          "type": "uint256"
        }
      ],
      "name": "getDrop",
      "outputs": [
        {
          "components": [
            {
              "internalType": "uint256",
              "name": "dropId",
              "type": "uint256"
            },
            {
              "internalType": "uint128",
              "name": "sold",
              "type": "uint128"
            },
            {
              "internalType": "uint64",
              "name": "saleOpenTime",
              "type": "uint64"
            },
            {
              "internalType": "uint64",
              "name": "saleCloseTime",
              "type": "uint64"
            },
            {
              "components": [
                {
                  "internalType": "uint256",
                  "name": "price",
                  "type": "uint256"
                },
                {
                  "internalType": "uint128",
                  "name": "supply",
                  "type": "uint128"
                },
                {
                  "internalType": "uint128",
                  "name": "royaltySharePerToken",
                  "type": "uint128"
                }
              ],
              "internalType": "struct EverDropManager.TokenInfo",
              "name": "tokenInfo",
              "type": "tuple"
            },
            {
              "internalType": "string",
              "name": "externalId",
              "type": "string"
            },
            {
              "internalType": "address",
              "name": "owner",
              "type": "address"
            },
            {
              "internalType": "address",
              "name": "nft",
              "type": "address"
            }
          ],
          "internalType": "struct EverDropManager.Drop",
          "name": "",
          "type": "tuple"
        }
      ],
      "stateMutability": "view",
      "type": "function"
    },
    {
      "inputs": [
        {
          "internalType": "string",
          "name": "_externalId",
          "type": "string"
        }
      ],
      "name": "getDropByExternalId",
      "outputs": [
        {
          "components": [
            {
              "internalType": "uint256",
              "name": "dropId",
              "type": "uint256"
            },
            {
              "internalType": "uint128",
              "name": "sold",
              "type": "uint128"
            },
            {
              "internalType": "uint64",
              "name": "saleOpenTime",
              "type": "uint64"
            },
            {
              "internalType": "uint64",
              "name": "saleCloseTime",
              "type": "uint64"
            },
            {
              "components": [
                {
                  "internalType": "uint256",
                  "name": "price",
                  "type": "uint256"
                },
                {
                  "internalType": "uint128",
                  "name": "supply",
                  "type": "uint128"
                },
                {
                  "internalType": "uint128",
                  "name": "royaltySharePerToken",
                  "type": "uint128"
                }
              ],
              "internalType": "struct EverDropManager.TokenInfo",
              "name": "tokenInfo",
              "type": "tuple"
            },
            {
              "internalType": "string",
              "name": "externalId",
              "type": "string"
            },
            {
              "internalType": "address",
              "name": "owner",
              "type": "address"
            },
            {
              "internalType": "address",
              "name": "nft",
              "type": "address"
            }
          ],
          "internalType": "struct EverDropManager.Drop",
          "name": "",
          "type": "tuple"
        }
      ],
      "stateMutability": "view",
      "type": "function"
    },
    {
      "inputs": [
        {
          "internalType": "bytes32",
          "name": "role",
          "type": "bytes32"
        }
      ],
      "name": "getRoleAdmin",
      "outputs": [
        {
          "internalType": "bytes32",
          "name": "",
          "type": "bytes32"
        }
      ],
      "stateMutability": "view",
      "type": "function"
    },
    {
      "inputs": [
        {
          "internalType": "bytes32",
          "name": "role",
          "type": "bytes32"
        },
        {
          "internalType": "address",
          "name": "account",
          "type": "address"
        }
      ],
      "name": "grantRole",
      "outputs": [],
      "stateMutability": "nonpayable",
      "type": "function"
    },
    {
      "inputs": [
        {
          "internalType": "bytes32",
          "name": "role",
          "type": "bytes32"
        },
        {
          "internalType": "address",
          "name": "account",
          "type": "address"
        }
      ],
      "name": "hasRole",
      "outputs": [
        {
          "internalType": "bool",
          "name": "",
          "type": "bool"
        }
      ],
      "stateMutability": "view",
      "type": "function"
    },
    {
      "inputs": [
        {
          "internalType": "address",
          "name": "_admin",
          "type": "address"
        }
      ],
      "name": "initialize",
      "outputs": [],
      "stateMutability": "nonpayable",
      "type": "function"
    },
    {
      "inputs": [],
      "name": "proxiableUUID",
      "outputs": [
        {
          "internalType": "bytes32",
          "name": "",
          "type": "bytes32"
        }
      ],
      "stateMutability": "view",
      "type": "function"
    },
    {
      "inputs": [
        {
          "internalType": "address",
          "name": "_creator",
          "type": "address"
        }
      ],
      "name": "removeCreator",
      "outputs": [],
      "stateMutability": "nonpayable",
      "type": "function"
    },
    {
      "inputs": [
        {
          "internalType": "address",
          "name": "_creator",
          "type": "address"
        }
      ],
      "name": "removeSubAdmin",
      "outputs": [],
      "stateMutability": "nonpayable",
      "type": "function"
    },
    {
      "inputs": [
        {
          "internalType": "bytes32",
          "name": "role",
          "type": "bytes32"
        },
        {
          "internalType": "address",
          "name": "account",
          "type": "address"
        }
      ],
      "name": "renounceRole",
      "outputs": [],
      "stateMutability": "nonpayable",
      "type": "function"
    },
    {
      "inputs": [
        {
          "internalType": "bytes32",
          "name": "role",
          "type": "bytes32"
        },
        {
          "internalType": "address",
          "name": "account",
          "type": "address"
        }
      ],
      "name": "revokeRole",
      "outputs": [],
      "stateMutability": "nonpayable",
      "type": "function"
    },
    {
      "inputs": [
        {
          "internalType": "uint256",
          "name": "_dropId",
          "type": "uint256"
        },
        {
          "internalType": "address",
          "name": "_owner",
          "type": "address"
        }
      ],
      "name": "setRightHolderInfo",
      "outputs": [],
      "stateMutability": "nonpayable",
      "type": "function"
    },
    {
      "inputs": [
        {
          "internalType": "uint256",
          "name": "_dropId",
          "type": "uint256"
        },
        {
          "internalType": "uint64",
          "name": "_saleOpenTime",
          "type": "uint64"
        },
        {
          "internalType": "uint64",
          "name": "_saleCloseTime",
          "type": "uint64"
        }
      ],
      "name": "setSalesInfo",
      "outputs": [],
      "stateMutability": "nonpayable",
      "type": "function"
    },
    {
      "inputs": [
        {
          "internalType": "uint256",
          "name": "_dropId",
          "type": "uint256"
        },
        {
          "internalType": "uint128",
          "name": "_supply",
          "type": "uint128"
        }
      ],
      "name": "setSupply",
      "outputs": [],
      "stateMutability": "nonpayable",
      "type": "function"
    },
    {
      "inputs": [
        {
          "internalType": "bytes4",
          "name": "interfaceId",
          "type": "bytes4"
        }
      ],
      "name": "supportsInterface",
      "outputs": [
        {
          "internalType": "bool",
          "name": "",
          "type": "bool"
        }
      ],
      "stateMutability": "view",
      "type": "function"
    },
    {
      "inputs": [
        {
          "internalType": "uint256",
          "name": "_dropId",
          "type": "uint256"
        },
        {
          "internalType": "uint128",
          "name": "_quantity",
          "type": "uint128"
        }
      ],
      "name": "updateDropCounter",
      "outputs": [],
      "stateMutability": "nonpayable",
      "type": "function"
    },
    {
      "inputs": [
        {
          "internalType": "address",
          "name": "newImplementation",
          "type": "address"
        }
      ],
      "name": "upgradeTo",
      "outputs": [],
      "stateMutability": "nonpayable",
      "type": "function"
    },
    {
      "inputs": [
        {
          "internalType": "address",
          "name": "newImplementation",
          "type": "address"
        },
        {
          "internalType": "bytes",
          "name": "data",
          "type": "bytes"
        }
      ],
      "name": "upgradeToAndCall",
      "outputs": [],
      "stateMutability": "payable",
      "type": "function"
    }
  ],
  "bytecode": "0x60a06040523060805234801561001457600080fd5b506080516125c761004c600039600081816106e50152818161072501528181610ac701528181610b070152610b9601526125c76000f3fe6080604052600436106101815760003560e01c80636787d449116100d1578063ba75d66e1161008a578063d1647b8b11610064578063d1647b8b14610496578063d547741f146104b6578063e30bf77c146104d6578063f4651d57146104f657600080fd5b8063ba75d66e14610436578063bd6018bb14610456578063c4d66de81461047657600080fd5b80636787d449146103725780638aeda25a1461039f57806391d14854146103c1578063a217fddf146103e1578063b280004a146103f6578063b9c4eb431461041657600080fd5b806336568abe1161013e57806348a84d791161011857806348a84d79146102f65780634f1ef2861461031657806352d1902d146103295780635eb399681461033e57600080fd5b806336568abe146102965780633659cfe6146102b65780633b9dce05146102d657600080fd5b806301ffc9a714610186578063022f2354146101bb5780631f9b0004146101eb57806320c91c0314610224578063248a9ca3146102465780632f2ff15d14610276575b600080fd5b34801561019257600080fd5b506101a66101a1366004611cc4565b610516565b60405190151581526020015b60405180910390f35b3480156101c757600080fd5b506101dd60008051602061257283398151915281565b6040519081526020016101b2565b3480156101f757600080fd5b506101dd610206366004611d99565b805160208183018101805161012e8252928201919093012091525481565b34801561023057600080fd5b5061024461023f366004611df1565b610527565b005b34801561025257600080fd5b506101dd610261366004611e2d565b600090815260c9602052604090206001015490565b34801561028257600080fd5b50610244610291366004611e5d565b61062e565b3480156102a257600080fd5b506102446102b1366004611e5d565b610658565b3480156102c257600080fd5b506102446102d1366004611e89565b6106db565b3480156102e257600080fd5b506102446102f1366004611e89565b6107ba565b34801561030257600080fd5b50610244610311366004611ebb565b6107ea565b610244610324366004611f65565b610abd565b34801561033557600080fd5b506101dd610b89565b34801561034a57600080fd5b5061035e610359366004611e2d565b610c3c565b6040516101b2989796959493929190612016565b34801561037e57600080fd5b5061039261038d366004611e2d565b610d6f565b6040516101b291906120b1565b3480156103ab57600080fd5b506101dd60008051602061250b83398151915281565b3480156103cd57600080fd5b506101a66103dc366004611e5d565b610edf565b3480156103ed57600080fd5b506101dd600081565b34801561040257600080fd5b50610244610411366004611e5d565b610f0a565b34801561042257600080fd5b50610244610431366004611e89565b61100c565b34801561044257600080fd5b50610244610451366004612186565b61102f565b34801561046257600080fd5b50610244610471366004611e89565b6110ce565b34801561048257600080fd5b50610244610491366004611e89565b6110fe565b3480156104a257600080fd5b506103926104b1366004611d99565b611262565b3480156104c257600080fd5b506102446104d1366004611e5d565b61129d565b3480156104e257600080fd5b506102446104f1366004612186565b6112c2565b34801561050257600080fd5b50610244610511366004611e89565b611360565b600061052182611383565b92915050565b60008051602061257283398151915261053f816113b4565b8261012d8581548110610554576105546121a9565b906000526020600020906007020160010160106101000a8154816001600160401b0302191690836001600160401b031602179055508161012d858154811061059e5761059e6121a9565b906000526020600020906007020160010160186101000a8154816001600160401b0302191690836001600160401b031602179055507f4c2ba6fbc88f10b0e039f9a0b3feaab8859f7d0d9a12e1310e7fbe7d7924c76a848484604051610620939291909283526001600160401b03918216602084015216604082015260600190565b60405180910390a150505050565b600082815260c96020526040902060010154610649816113b4565b61065383836113be565b505050565b6001600160a01b03811633146106cd5760405162461bcd60e51b815260206004820152602f60248201527f416363657373436f6e74726f6c3a2063616e206f6e6c792072656e6f756e636560448201526e103937b632b9903337b91039b2b63360891b60648201526084015b60405180910390fd5b6106d78282611444565b5050565b6001600160a01b037f00000000000000000000000000000000000000000000000000000000000000001630036107235760405162461bcd60e51b81526004016106c4906121bf565b7f00000000000000000000000000000000000000000000000000000000000000006001600160a01b031661076c60008051602061252b833981519152546001600160a01b031690565b6001600160a01b0316146107925760405162461bcd60e51b81526004016106c49061220b565b61079b816114ab565b604080516000808252602082019092526107b7918391906114b6565b50565b6000805160206125728339815191526107d2816113b4565b6106d760008051602061250b833981519152836113be565b60008051602061250b833981519152610802816113b4565b600061012d805490509050600060405180606001604052808a8152602001896001600160801b03168152602001886001600160801b0316815250905061012d60405180610100016040528084815260200160006001600160801b03168152602001876001600160401b03168152602001866001600160401b031681526020018381526020018881526020018d6001600160a01b031681526020018c6001600160a01b031681525090806001815401808255809150506001900390600052602060002090600702016000909190919091506000820151816000015560208201518160010160006101000a8154816001600160801b0302191690836001600160801b0316021790555060408201518160010160106101000a8154816001600160401b0302191690836001600160401b0316021790555060608201518160010160186101000a8154816001600160401b0302191690836001600160401b031602179055506080820151816002016000820151816000015560208201518160010160006101000a8154816001600160801b0302191690836001600160801b0316021790555060408201518160010160106101000a8154816001600160801b0302191690836001600160801b03160217905550505060a08201518160040190816109e791906122df565b5060c08201516005820180546001600160a01b03199081166001600160a01b039384161790915560e090930151600690920180549093169116179055604051829061012e90610a3790899061239e565b90815260405190819003602001902055610a588a63278c815360e11b611621565b610a75576040516382542ee160e01b815260040160405180910390fd5b7fd7146dfb221999e9fbb0fb7dde3c603590b0bd2f3c75d0ec47d77dc913490b0b82878c604051610aa8939291906123ba565b60405180910390a15050505050505050505050565b6001600160a01b037f0000000000000000000000000000000000000000000000000000000000000000163003610b055760405162461bcd60e51b81526004016106c4906121bf565b7f00000000000000000000000000000000000000000000000000000000000000006001600160a01b0316610b4e60008051602061252b833981519152546001600160a01b031690565b6001600160a01b031614610b745760405162461bcd60e51b81526004016106c49061220b565b610b7d826114ab565b6106d7828260016114b6565b6000306001600160a01b037f00000000000000000000000000000000000000000000000000000000000000001614610c295760405162461bcd60e51b815260206004820152603860248201527f555550535570677261646561626c653a206d757374206e6f742062652063616c60448201527f6c6564207468726f7567682064656c656761746563616c6c000000000000000060648201526084016106c4565b5060008051602061252b83398151915290565b61012d8181548110610c4d57600080fd5b600091825260209182902060079091020180546001820154604080516060810182526002850154815260038501546001600160801b0381811697830197909752600160801b90819004871692820192909252600485018054949750958316956001600160401b03928404831695600160c01b9094049092169390929190610cd390612257565b80601f0160208091040260200160405190810160405280929190818152602001828054610cff90612257565b8015610d4c5780601f10610d2157610100808354040283529160200191610d4c565b820191906000526020600020905b815481529060010190602001808311610d2f57829003601f168201915b50505050600583015460069093015491926001600160a01b039081169216905088565b610d77611c6a565b61012d8281548110610d8b57610d8b6121a9565b6000918252602091829020604080516101008101825260079093029091018054835260018101546001600160801b03808216858701526001600160401b03600160801b808404821687870152600160c01b9093041660608087019190915284519081018552600284015481526003840154808316978201979097529190950490941691840191909152608082019290925260048201805491929160a084019190610e3490612257565b80601f0160208091040260200160405190810160405280929190818152602001828054610e6090612257565b8015610ead5780601f10610e8257610100808354040283529160200191610ead565b820191906000526020600020905b815481529060010190602001808311610e9057829003601f168201915b505050918352505060058201546001600160a01b03908116602083015260069092015490911660409091015292915050565b600091825260c9602090815260408084206001600160a01b0393909316845291905290205460ff1690565b600080516020612572833981519152610f22816113b4565b610f3a60008051602061250b83398151915283610edf565b610f865760405162461bcd60e51b815260206004820152601a60248201527f4e6577206f776e6572206973206e6f7420612063726561746f7200000000000060448201526064016106c4565b8161012d8481548110610f9b57610f9b6121a9565b60009182526020918290206007919091020160050180546001600160a01b0319166001600160a01b0393841617905560408051868152928516918301919091527f5c979a59ec00077721bab764e52d273a83cd3cd803d2beffbed0bbd2edef8c3391015b60405180910390a1505050565b6000611017816113b4565b6106d7600080516020612572833981519152836113be565b600061012d8381548110611045576110456121a9565b6000918252602090912060079091020160068101549091506001600160a01b0316331461108557604051634f1f214760e01b815260040160405180910390fd5b6001810180548391906000906110a59084906001600160801b0316612401565b92506101000a8154816001600160801b0302191690836001600160801b03160217905550505050565b6000805160206125728339815191526110e6816113b4565b6106d760008051602061250b83398151915283611444565b600054610100900460ff161580801561111e5750600054600160ff909116105b806111385750303b158015611138575060005460ff166001145b61119b5760405162461bcd60e51b815260206004820152602e60248201527f496e697469616c697a61626c653a20636f6e747261637420697320616c72656160448201526d191e481a5b9a5d1a585b1a5e995960921b60648201526084016106c4565b6000805460ff1916600117905580156111be576000805461ff0019166101001790555b6111c6611644565b6111ce611644565b6111d96000836116b1565b6111f160008051602061250b833981519152836113be565b611209600080516020612572833981519152836113be565b611219635049b31160e11b6116bb565b80156106d7576000805461ff0019169055604051600181527f7f26b83ff96e1f2b6a682f133852f6798a09c465da95921460cefb38474024989060200160405180910390a15050565b61126a611c6a565b61012d61012e8360405161127e919061239e565b90815260200160405180910390205481548110610d8b57610d8b6121a9565b600082815260c960205260409020600101546112b8816113b4565b6106538383611444565b6000805160206125728339815191526112da816113b4565b8161012d84815481106112ef576112ef6121a9565b60009182526020918290206007919091020160030180546fffffffffffffffffffffffffffffffff19166001600160801b0393841617905560408051868152928516918301919091527ffd907f4a6bc86e8f99fe5b04dd4c6826631f862071ab3f55f9804563681914be9101610fff565b600061136b816113b4565b6106d760008051602061257283398151915283611444565b600061138e8261173a565b806105215750506001600160e01b031916600090815260fb602052604090205460ff1690565b6107b7813361176f565b6113c88282610edf565b6106d757600082815260c9602090815260408083206001600160a01b03851684529091529020805460ff191660011790556114003390565b6001600160a01b0316816001600160a01b0316837f2f8788117e7eff1d82e926ec794901d17c78024a50270940304540a733656f0d60405160405180910390a45050565b61144e8282610edf565b156106d757600082815260c9602090815260408083206001600160a01b0385168085529252808320805460ff1916905551339285917ff6391f5c32d9c69d2a47ea670b442974b53935d1edc7fd64eb21e047a839171b9190a45050565b60006106d7816113b4565b7f4910fdfa16fed3260ed0e7147f7cc6da11a60208b5b9406d12a635614ffd91435460ff16156114e957610653836117c8565b826001600160a01b03166352d1902d6040518163ffffffff1660e01b8152600401602060405180830381865afa925050508015611543575060408051601f3d908101601f1916820190925261154091810190612428565b60015b6115a65760405162461bcd60e51b815260206004820152602e60248201527f45524331393637557067726164653a206e657720696d706c656d656e7461746960448201526d6f6e206973206e6f74205555505360901b60648201526084016106c4565b60008051602061252b83398151915281146116155760405162461bcd60e51b815260206004820152602960248201527f45524331393637557067726164653a20756e737570706f727465642070726f786044820152681a58589b195555525160ba1b60648201526084016106c4565b50610653838383611864565b600061162c8361188f565b801561163d575061163d83836118c2565b9392505050565b600054610100900460ff166116af5760405162461bcd60e51b815260206004820152602b60248201527f496e697469616c697a61626c653a20636f6e7472616374206973206e6f74206960448201526a6e697469616c697a696e6760a81b60648201526084016106c4565b565b6106d782826113be565b6001600160e01b031980821690036117155760405162461bcd60e51b815260206004820152601c60248201527f4552433136353a20696e76616c696420696e746572666163652069640000000060448201526064016106c4565b6001600160e01b031916600090815260fb60205260409020805460ff19166001179055565b60006001600160e01b03198216637965db0b60e01b148061052157506301ffc9a760e01b6001600160e01b0319831614610521565b6117798282610edf565b6106d7576117868161194b565b61179183602061195d565b6040516020016117a2929190612441565b60408051601f198184030181529082905262461bcd60e51b82526106c4916004016124b6565b6001600160a01b0381163b6118355760405162461bcd60e51b815260206004820152602d60248201527f455243313936373a206e657720696d706c656d656e746174696f6e206973206e60448201526c1bdd08184818dbdb9d1c9858dd609a1b60648201526084016106c4565b60008051602061252b83398151915280546001600160a01b0319166001600160a01b0392909216919091179055565b61186d83611af8565b60008251118061187a5750805b15610653576118898383611b38565b50505050565b60006118a2826301ffc9a760e01b6118c2565b801561052157506118bb826001600160e01b03196118c2565b1592915050565b604080516001600160e01b03198316602480830191909152825180830390910181526044909101909152602080820180516001600160e01b03166301ffc9a760e01b178152825160009392849283928392918391908a617530fa92503d91506000519050828015611934575060208210155b80156119405750600081115b979650505050505050565b60606105216001600160a01b03831660145b6060600061196c8360026124c9565b6119779060026124e0565b6001600160401b0381111561198e5761198e611cee565b6040519080825280601f01601f1916602001820160405280156119b8576020820181803683370190505b509050600360fc1b816000815181106119d3576119d36121a9565b60200101906001600160f81b031916908160001a905350600f60fb1b81600181518110611a0257611a026121a9565b60200101906001600160f81b031916908160001a9053506000611a268460026124c9565b611a319060016124e0565b90505b6001811115611aa9576f181899199a1a9b1b9c1cb0b131b232b360811b85600f1660108110611a6557611a656121a9565b1a60f81b828281518110611a7b57611a7b6121a9565b60200101906001600160f81b031916908160001a90535060049490941c93611aa2816124f3565b9050611a34565b50831561163d5760405162461bcd60e51b815260206004820181905260248201527f537472696e67733a20686578206c656e67746820696e73756666696369656e7460448201526064016106c4565b611b01816117c8565b6040516001600160a01b038216907fbc7cd75a20ee27fd9adebab32041f755214dbc6bffa90cc0225b39da2e5c2d3b90600090a250565b60606001600160a01b0383163b611ba05760405162461bcd60e51b815260206004820152602660248201527f416464726573733a2064656c65676174652063616c6c20746f206e6f6e2d636f6044820152651b9d1c9858dd60d21b60648201526084016106c4565b600080846001600160a01b031684604051611bbb919061239e565b600060405180830381855af49150503d8060008114611bf6576040519150601f19603f3d011682016040523d82523d6000602084013e611bfb565b606091505b5091509150611c23828260405180606001604052806027815260200161254b60279139611c2c565b95945050505050565b60608315611c3b57508161163d565b61163d8383815115611c505781518083602001fd5b8060405162461bcd60e51b81526004016106c491906124b6565b60408051610100810182526000808252602080830182905282840182905260608084018390528451908101855282815290810182905292830152906080820190815260606020820181905260006040830181905291015290565b600060208284031215611cd657600080fd5b81356001600160e01b03198116811461163d57600080fd5b634e487b7160e01b600052604160045260246000fd5b60006001600160401b0380841115611d1e57611d1e611cee565b604051601f8501601f19908116603f01168101908282118183101715611d4657611d46611cee565b81604052809350858152868686011115611d5f57600080fd5b858560208301376000602087830101525050509392505050565b600082601f830112611d8a57600080fd5b61163d83833560208501611d04565b600060208284031215611dab57600080fd5b81356001600160401b03811115611dc157600080fd5b611dcd84828501611d79565b949350505050565b80356001600160401b0381168114611dec57600080fd5b919050565b600080600060608486031215611e0657600080fd5b83359250611e1660208501611dd5565b9150611e2460408501611dd5565b90509250925092565b600060208284031215611e3f57600080fd5b5035919050565b80356001600160a01b0381168114611dec57600080fd5b60008060408385031215611e7057600080fd5b82359150611e8060208401611e46565b90509250929050565b600060208284031215611e9b57600080fd5b61163d82611e46565b80356001600160801b0381168114611dec57600080fd5b600080600080600080600080610100898b031215611ed857600080fd5b611ee189611e46565b9750611eef60208a01611e46565b965060408901359550611f0460608a01611ea4565b9450611f1260808a01611ea4565b935060a08901356001600160401b03811115611f2d57600080fd5b611f398b828c01611d79565b935050611f4860c08a01611dd5565b9150611f5660e08a01611dd5565b90509295985092959890939650565b60008060408385031215611f7857600080fd5b611f8183611e46565b915060208301356001600160401b03811115611f9c57600080fd5b8301601f81018513611fad57600080fd5b611fbc85823560208401611d04565b9150509250929050565b60005b83811015611fe1578181015183820152602001611fc9565b50506000910152565b60008151808452612002816020860160208601611fc6565b601f01601f19169290920160200192915050565b8881526001600160801b03881660208201526001600160401b0387811660408301528616606082015260006101406120746080840188805182526020808201516001600160801b039081169184019190915260409182015116910152565b8060e084015261208681840187611fea565b6001600160a01b03958616610100850152939094166101209092019190915250979650505050505050565b60208152815160208201526001600160801b036020830151166040820152600060408301516120eb60608401826001600160401b03169052565b5060608301516001600160401b0381166080840152506080830151805160a084015260208101516001600160801b0390811660c085015260408201511660e08401525060a08301516101408061010085015261214b610160850183611fea565b915060c08501516121686101208601826001600160a01b03169052565b5060e08501516001600160a01b038116858301525090949350505050565b6000806040838503121561219957600080fd5b82359150611e8060208401611ea4565b634e487b7160e01b600052603260045260246000fd5b6020808252602c908201527f46756e6374696f6e206d7573742062652063616c6c6564207468726f7567682060408201526b19195b1959d85d1958d85b1b60a21b606082015260800190565b6020808252602c908201527f46756e6374696f6e206d7573742062652063616c6c6564207468726f7567682060408201526b6163746976652070726f787960a01b606082015260800190565b600181811c9082168061226b57607f821691505b60208210810361228b57634e487b7160e01b600052602260045260246000fd5b50919050565b601f82111561065357600081815260208120601f850160051c810160208610156122b85750805b601f850160051c820191505b818110156122d7578281556001016122c4565b505050505050565b81516001600160401b038111156122f8576122f8611cee565b61230c816123068454612257565b84612291565b602080601f83116001811461234157600084156123295750858301515b600019600386901b1c1916600185901b1785556122d7565b600085815260208120601f198616915b8281101561237057888601518255948401946001909101908401612351565b508582101561238e5787850151600019600388901b60f8161c191681555b5050505050600190811b01905550565b600082516123b0818460208701611fc6565b9190910192915050565b8381526060602082015260006123d36060830185611fea565b905060018060a01b0383166040830152949350505050565b634e487b7160e01b600052601160045260246000fd5b6001600160801b03818116838216019080821115612421576124216123eb565b5092915050565b60006020828403121561243a57600080fd5b5051919050565b7f416363657373436f6e74726f6c3a206163636f756e7420000000000000000000815260008351612479816017850160208801611fc6565b7001034b99036b4b9b9b4b733903937b6329607d1b60179184019182015283516124aa816028840160208801611fc6565b01602801949350505050565b60208152600061163d6020830184611fea565b8082028115828204841417610521576105216123eb565b80820180821115610521576105216123eb565b600081612502576125026123eb565b50600019019056fe828634d95e775031b9ff576b159a8509d3053581a8c9c4d7d86899e0afcd882f360894a13ba1a3210667c828492db98dca3e2076cc3735a920a3ca505d382bbc416464726573733a206c6f772d6c6576656c2064656c65676174652063616c6c206661696c6564d2e4c2619ea6e0faebc405d89445161c041e30fe03373ea0473da142d57d4514a2646970667358221220e81f9d776c797d0d84fc0668ae0a3318d08300bd65930db461ff7f83851730c564736f6c63430008110033",
  "linkReferences": {},
  "deployedLinkReferences": {}
}